{
  "_format": "hh-sol-artifact-1",
  "contractName": "Uppsala",
  "sourceName": "contracts/Uppsala.sol",
  "abi": [
    {
      "inputs": [
        {
          "internalType": "address",
          "name": "_admin",
          "type": "address"
        }
      ],
      "stateMutability": "nonpayable",
      "type": "constructor"
    },
    {
      "anonymous": false,
      "inputs": [
        {
          "indexed": false,
          "internalType": "address",
          "name": "",
          "type": "address"
        }
      ],
      "name": "SetAddrData",
      "type": "event"
    },
    {
      "anonymous": false,
      "inputs": [
        {
          "indexed": false,
          "internalType": "address",
          "name": "",
          "type": "address"
        }
      ],
      "name": "SetAdmin",
      "type": "event"
    },
    {
      "anonymous": false,
      "inputs": [
        {
          "indexed": false,
          "internalType": "string",
          "name": "",
          "type": "string"
        }
      ],
      "name": "SetUrlData",
      "type": "event"
    },
    {
      "inputs": [],
      "name": "admin",
      "outputs": [
        {
          "internalType": "address",
          "name": "",
          "type": "address"
        }
      ],
      "stateMutability": "view",
      "type": "function"
    },
    {
      "inputs": [
        {
          "internalType": "address",
          "name": "_addr",
          "type": "address"
        }
      ],
      "name": "checkAddress",
      "outputs": [
        {
          "components": [
            {
              "internalType": "address",
              "name": "x_pattern_value",
              "type": "address"
            },
            {
              "internalType": "string[]",
              "name": "labels",
              "type": "string[]"
            },
            {
              "internalType": "string",
              "name": "category",
              "type": "string"
            },
            {
              "internalType": "string",
              "name": "subType",
              "type": "string"
            }
          ],
          "internalType": "struct STIX_ADDR",
          "name": "",
          "type": "tuple"
        }
      ],
      "stateMutability": "view",
      "type": "function"
    },
    {
      "inputs": [
        {
          "internalType": "string",
          "name": "_url",
          "type": "string"
        }
      ],
      "name": "checkUrl",
      "outputs": [
        {
          "components": [
            {
              "internalType": "string",
              "name": "x_pattern_value",
              "type": "string"
            },
            {
              "internalType": "string[]",
              "name": "labels",
              "type": "string[]"
            },
            {
              "internalType": "string",
              "name": "category",
              "type": "string"
            }
          ],
          "internalType": "struct STIX_URL",
          "name": "",
          "type": "tuple"
        }
      ],
      "stateMutability": "view",
      "type": "function"
    },
    {
      "inputs": [
        {
          "internalType": "address",
          "name": "_addr",
          "type": "address"
        },
        {
          "internalType": "string[]",
          "name": "_labels",
          "type": "string[]"
        },
        {
          "internalType": "string",
          "name": "_category",
          "type": "string"
        },
        {
          "internalType": "string",
          "name": "_subType",
          "type": "string"
        }
      ],
      "name": "setAddrData",
      "outputs": [],
      "stateMutability": "nonpayable",
      "type": "function"
    },
    {
      "inputs": [
        {
          "internalType": "address",
          "name": "_newAdmin",
          "type": "address"
        }
      ],
      "name": "setAdmin",
      "outputs": [],
      "stateMutability": "nonpayable",
      "type": "function"
    },
    {
      "inputs": [
        {
          "internalType": "string",
          "name": "_url",
          "type": "string"
        },
        {
          "internalType": "string[]",
          "name": "_labels",
          "type": "string[]"
        },
        {
          "internalType": "string",
          "name": "_category",
          "type": "string"
        }
      ],
      "name": "setUrlData",
      "outputs": [],
      "stateMutability": "nonpayable",
      "type": "function"
    }
  ],
  "bytecode": "0x60806040523480156200001157600080fd5b5060405162001d5038038062001d5083398181016040528101906200003791906200015a565b600073ffffffffffffffffffffffffffffffffffffffff168173ffffffffffffffffffffffffffffffffffffffff1603620000a9576040517f08c379a0000000000000000000000000000000000000000000000000000000008152600401620000a090620001ed565b60405180910390fd5b806000806101000a81548173ffffffffffffffffffffffffffffffffffffffff021916908373ffffffffffffffffffffffffffffffffffffffff160217905550506200020f565b600080fd5b600073ffffffffffffffffffffffffffffffffffffffff82169050919050565b60006200012282620000f5565b9050919050565b620001348162000115565b81146200014057600080fd5b50565b600081519050620001548162000129565b92915050565b600060208284031215620001735762000172620000f0565b5b6000620001838482850162000143565b91505092915050565b600082825260208201905092915050565b7f61646d696e2073686f756c642062652070726f76696465640000000000000000600082015250565b6000620001d56018836200018c565b9150620001e2826200019d565b602082019050919050565b600060208201905081810360008301526200020881620001c6565b9050919050565b611b31806200021f6000396000f3fe608060405234801561001057600080fd5b50600436106100625760003560e01c80630ddcfe8e1461006757806346c4831114610097578063704b6c02146100b357806389dcf7ed146100cf578063d2e50ebb146100ff578063f851a4401461011b575b600080fd5b610081600480360381019061007c9190610e3b565b610139565b60405161008e919061103a565b60405180910390f35b6100b160048036038101906100ac9190611277565b6103e5565b005b6100cd60048036038101906100c89190610e3b565b610600565b005b6100e960048036038101906100e4919061131e565b610728565b6040516100f691906113c5565b60405180910390f35b610119600480360381019061011491906113e7565b61095d565b005b610123610c6c565b60405161013091906114b1565b60405180910390f35b610141610c90565b600160008373ffffffffffffffffffffffffffffffffffffffff1673ffffffffffffffffffffffffffffffffffffffff1681526020019081526020016000206040518060800160405290816000820160009054906101000a900473ffffffffffffffffffffffffffffffffffffffff1673ffffffffffffffffffffffffffffffffffffffff1673ffffffffffffffffffffffffffffffffffffffff16815260200160018201805480602002602001604051908101604052809291908181526020016000905b828210156102b2578382906000526020600020018054610225906114fb565b80601f0160208091040260200160405190810160405280929190818152602001828054610251906114fb565b801561029e5780601f106102735761010080835404028352916020019161029e565b820191906000526020600020905b81548152906001019060200180831161028157829003601f168201915b505050505081526020019060010190610206565b5050505081526020016002820180546102ca906114fb565b80601f01602080910402602001604051908101604052809291908181526020018280546102f6906114fb565b80156103435780601f1061031857610100808354040283529160200191610343565b820191906000526020600020905b81548152906001019060200180831161032657829003601f168201915b5050505050815260200160038201805461035c906114fb565b80601f0160208091040260200160405190810160405280929190818152602001828054610388906114fb565b80156103d55780601f106103aa576101008083540402835291602001916103d5565b820191906000526020600020905b8154815290600101906020018083116103b857829003601f168201915b5050505050815250509050919050565b60008054906101000a900473ffffffffffffffffffffffffffffffffffffffff1673ffffffffffffffffffffffffffffffffffffffff163373ffffffffffffffffffffffffffffffffffffffff1614610473576040517f08c379a000000000000000000000000000000000000000000000000000000000815260040161046a90611589565b60405180910390fd5b60008351036104b7576040517f08c379a00000000000000000000000000000000000000000000000000000000081526004016104ae906115f5565b60405180910390fd5b60008251036104fb576040517f08c379a00000000000000000000000000000000000000000000000000000000081526004016104f290611661565b60405180910390fd5b600081510361053f576040517f08c379a0000000000000000000000000000000000000000000000000000000008152600401610536906116cd565b60405180910390fd5b60405180606001604052808481526020018381526020018281525060028460405161056a9190611729565b9081526020016040518091039020600082015181600001908161058d91906118f6565b5060208201518160010190805190602001906105aa929190610cce565b5060408201518160020190816105c091906118f6565b509050507fe1e73cea801405ffb0b85349c05bd8c9f98aed462670e1b231c289fc5dbd7f37836040516105f39190611a01565b60405180910390a1505050565b60008054906101000a900473ffffffffffffffffffffffffffffffffffffffff1673ffffffffffffffffffffffffffffffffffffffff163373ffffffffffffffffffffffffffffffffffffffff161461068e576040517f08c379a000000000000000000000000000000000000000000000000000000000815260040161068590611589565b60405180910390fd5b806000806101000a81548173ffffffffffffffffffffffffffffffffffffffff021916908373ffffffffffffffffffffffffffffffffffffffff1602179055507f5a272403b402d892977df56625f4164ccaf70ca3863991c43ecfe76a6905b0a160008054906101000a900473ffffffffffffffffffffffffffffffffffffffff1660405161071d91906114b1565b60405180910390a150565b610730610d27565b6002826040516107409190611729565b9081526020016040518091039020604051806060016040529081600082018054610769906114fb565b80601f0160208091040260200160405190810160405280929190818152602001828054610795906114fb565b80156107e25780601f106107b7576101008083540402835291602001916107e2565b820191906000526020600020905b8154815290600101906020018083116107c557829003601f168201915b5050505050815260200160018201805480602002602001604051908101604052809291908181526020016000905b828210156108bc57838290600052602060002001805461082f906114fb565b80601f016020809104026020016040519081016040528092919081815260200182805461085b906114fb565b80156108a85780601f1061087d576101008083540402835291602001916108a8565b820191906000526020600020905b81548152906001019060200180831161088b57829003601f168201915b505050505081526020019060010190610810565b5050505081526020016002820180546108d4906114fb565b80601f0160208091040260200160405190810160405280929190818152602001828054610900906114fb565b801561094d5780601f106109225761010080835404028352916020019161094d565b820191906000526020600020905b81548152906001019060200180831161093057829003601f168201915b5050505050815250509050919050565b60008054906101000a900473ffffffffffffffffffffffffffffffffffffffff1673ffffffffffffffffffffffffffffffffffffffff163373ffffffffffffffffffffffffffffffffffffffff16146109eb576040517f08c379a00000000000000000000000000000000000000000000000000000000081526004016109e290611589565b60405180910390fd5b600073ffffffffffffffffffffffffffffffffffffffff168473ffffffffffffffffffffffffffffffffffffffff1603610a5a576040517f08c379a0000000000000000000000000000000000000000000000000000000008152600401610a5190611a6f565b60405180910390fd5b6000835103610a9e576040517f08c379a0000000000000000000000000000000000000000000000000000000008152600401610a9590611661565b60405180910390fd5b6000825103610ae2576040517f08c379a0000000000000000000000000000000000000000000000000000000008152600401610ad9906116cd565b60405180910390fd5b6000815103610b26576040517f08c379a0000000000000000000000000000000000000000000000000000000008152600401610b1d90611adb565b60405180910390fd5b60405180608001604052808573ffffffffffffffffffffffffffffffffffffffff16815260200184815260200183815260200182815250600160008673ffffffffffffffffffffffffffffffffffffffff1673ffffffffffffffffffffffffffffffffffffffff16815260200190815260200160002060008201518160000160006101000a81548173ffffffffffffffffffffffffffffffffffffffff021916908373ffffffffffffffffffffffffffffffffffffffff1602179055506020820151816001019080519060200190610bff929190610cce565b506040820151816002019081610c1591906118f6565b506060820151816003019081610c2b91906118f6565b509050507fd9664f79fcd2597f70c71280dbf8fccb5493b9206a42320187db26b24c48456984604051610c5e91906114b1565b60405180910390a150505050565b60008054906101000a900473ffffffffffffffffffffffffffffffffffffffff1681565b6040518060800160405280600073ffffffffffffffffffffffffffffffffffffffff1681526020016060815260200160608152602001606081525090565b828054828255906000526020600020908101928215610d16579160200282015b82811115610d15578251829081610d0591906118f6565b5091602001919060010190610cee565b5b509050610d239190610d48565b5090565b60405180606001604052806060815260200160608152602001606081525090565b5b80821115610d685760008181610d5f9190610d6c565b50600101610d49565b5090565b508054610d78906114fb565b6000825580601f10610d8a5750610da9565b601f016020900490600052602060002090810190610da89190610dac565b5b50565b5b80821115610dc5576000816000905550600101610dad565b5090565b6000604051905090565b600080fd5b600080fd5b600073ffffffffffffffffffffffffffffffffffffffff82169050919050565b6000610e0882610ddd565b9050919050565b610e1881610dfd565b8114610e2357600080fd5b50565b600081359050610e3581610e0f565b92915050565b600060208284031215610e5157610e50610dd3565b5b6000610e5f84828501610e26565b91505092915050565b610e7181610dfd565b82525050565b600081519050919050565b600082825260208201905092915050565b6000819050602082019050919050565b600081519050919050565b600082825260208201905092915050565b60005b83811015610edd578082015181840152602081019050610ec2565b60008484015250505050565b6000601f19601f8301169050919050565b6000610f0582610ea3565b610f0f8185610eae565b9350610f1f818560208601610ebf565b610f2881610ee9565b840191505092915050565b6000610f3f8383610efa565b905092915050565b6000602082019050919050565b6000610f5f82610e77565b610f698185610e82565b935083602082028501610f7b85610e93565b8060005b85811015610fb75784840389528151610f988582610f33565b9450610fa383610f47565b925060208a01995050600181019050610f7f565b50829750879550505050505092915050565b6000608083016000830151610fe16000860182610e68565b5060208301518482036020860152610ff98282610f54565b915050604083015184820360408601526110138282610efa565b9150506060830151848203606086015261102d8282610efa565b9150508091505092915050565b600060208201905081810360008301526110548184610fc9565b905092915050565b600080fd5b600080fd5b7f4e487b7100000000000000000000000000000000000000000000000000000000600052604160045260246000fd5b61109e82610ee9565b810181811067ffffffffffffffff821117156110bd576110bc611066565b5b80604052505050565b60006110d0610dc9565b90506110dc8282611095565b919050565b600067ffffffffffffffff8211156110fc576110fb611066565b5b61110582610ee9565b9050602081019050919050565b82818337600083830152505050565b600061113461112f846110e1565b6110c6565b9050828152602081018484840111156111505761114f611061565b5b61115b848285611112565b509392505050565b600082601f8301126111785761117761105c565b5b8135611188848260208601611121565b91505092915050565b600067ffffffffffffffff8211156111ac576111ab611066565b5b602082029050602081019050919050565b600080fd5b60006111d56111d084611191565b6110c6565b905080838252602082019050602084028301858111156111f8576111f76111bd565b5b835b8181101561123f57803567ffffffffffffffff81111561121d5761121c61105c565b5b80860161122a8982611163565b855260208501945050506020810190506111fa565b5050509392505050565b600082601f83011261125e5761125d61105c565b5b813561126e8482602086016111c2565b91505092915050565b6000806000606084860312156112905761128f610dd3565b5b600084013567ffffffffffffffff8111156112ae576112ad610dd8565b5b6112ba86828701611163565b935050602084013567ffffffffffffffff8111156112db576112da610dd8565b5b6112e786828701611249565b925050604084013567ffffffffffffffff81111561130857611307610dd8565b5b61131486828701611163565b9150509250925092565b60006020828403121561133457611333610dd3565b5b600082013567ffffffffffffffff81111561135257611351610dd8565b5b61135e84828501611163565b91505092915050565b600060608301600083015184820360008601526113848282610efa565b9150506020830151848203602086015261139e8282610f54565b915050604083015184820360408601526113b88282610efa565b9150508091505092915050565b600060208201905081810360008301526113df8184611367565b905092915050565b6000806000806080858703121561140157611400610dd3565b5b600061140f87828801610e26565b945050602085013567ffffffffffffffff8111156114305761142f610dd8565b5b61143c87828801611249565b935050604085013567ffffffffffffffff81111561145d5761145c610dd8565b5b61146987828801611163565b925050606085013567ffffffffffffffff81111561148a57611489610dd8565b5b61149687828801611163565b91505092959194509250565b6114ab81610dfd565b82525050565b60006020820190506114c660008301846114a2565b92915050565b7f4e487b7100000000000000000000000000000000000000000000000000000000600052602260045260246000fd5b6000600282049050600182168061151357607f821691505b602082108103611526576115256114cc565b5b50919050565b600082825260208201905092915050565b7f4f6e6c792061646d696e2063616e206578656375746500000000000000000000600082015250565b600061157360168361152c565b915061157e8261153d565b602082019050919050565b600060208201905081810360008301526115a281611566565b9050919050565b7f75726c2073686f756c642062652070726f766964656400000000000000000000600082015250565b60006115df60168361152c565b91506115ea826115a9565b602082019050919050565b6000602082019050818103600083015261160e816115d2565b9050919050565b7f6c6162656c732073686f756c642062652070726f766964656400000000000000600082015250565b600061164b60198361152c565b915061165682611615565b602082019050919050565b6000602082019050818103600083015261167a8161163e565b9050919050565b7f63617465676f72792073686f756c642062652070726f76696465640000000000600082015250565b60006116b7601b8361152c565b91506116c282611681565b602082019050919050565b600060208201905081810360008301526116e6816116aa565b9050919050565b600081905092915050565b600061170382610ea3565b61170d81856116ed565b935061171d818560208601610ebf565b80840191505092915050565b600061173582846116f8565b915081905092915050565b60008190508160005260206000209050919050565b60006020601f8301049050919050565b600082821b905092915050565b6000600883026117a27fffffffffffffffffffffffffffffffffffffffffffffffffffffffffffffffff82611765565b6117ac8683611765565b95508019841693508086168417925050509392505050565b6000819050919050565b6000819050919050565b60006117f36117ee6117e9846117c4565b6117ce565b6117c4565b9050919050565b6000819050919050565b61180d836117d8565b611821611819826117fa565b848454611772565b825550505050565b600090565b611836611829565b611841818484611804565b505050565b5b818110156118655761185a60008261182e565b600181019050611847565b5050565b601f8211156118aa5761187b81611740565b61188484611755565b81016020851015611893578190505b6118a761189f85611755565b830182611846565b50505b505050565b600082821c905092915050565b60006118cd600019846008026118af565b1980831691505092915050565b60006118e683836118bc565b9150826002028217905092915050565b6118ff82610ea3565b67ffffffffffffffff81111561191857611917611066565b5b61192282546114fb565b61192d828285611869565b600060209050601f831160018114611960576000841561194e578287015190505b61195885826118da565b8655506119c0565b601f19841661196e86611740565b60005b8281101561199657848901518255600182019150602085019450602081019050611971565b868310156119b357848901516119af601f8916826118bc565b8355505b6001600288020188555050505b505050505050565b60006119d382610ea3565b6119dd818561152c565b93506119ed818560208601610ebf565b6119f681610ee9565b840191505092915050565b60006020820190508181036000830152611a1b81846119c8565b905092915050565b7f616464726573732073686f756c642062652070726f7669646564000000000000600082015250565b6000611a59601a8361152c565b9150611a6482611a23565b602082019050919050565b60006020820190508181036000830152611a8881611a4c565b9050919050565b7f737562547970652073686f756c642062652070726f7669646564000000000000600082015250565b6000611ac5601a8361152c565b9150611ad082611a8f565b602082019050919050565b60006020820190508181036000830152611af481611ab8565b905091905056fea2646970667358221220c07e07286cab259bf969be27ca1e73577c8ac98f7dfd701ab3fd7c254907f1b864736f6c63430008180033",
  "linkReferences": {},
  "deployedLinkReferences": {}
}