{
  "_format": "hh-sol-artifact-1",
  "contractName": "Uppsala",
  "sourceName": "contracts/Uppsala.sol",
  "abi": [
    {
      "inputs": [
        {
          "internalType": "address",
          "name": "_admin",
          "type": "address"
        }
      ],
      "stateMutability": "nonpayable",
      "type": "constructor"
    },
    {
      "anonymous": false,
      "inputs": [
        {
          "indexed": false,
          "internalType": "address",
          "name": "",
          "type": "address"
        }
      ],
      "name": "AddUser",
      "type": "event"
    },
    {
      "anonymous": false,
      "inputs": [
        {
          "indexed": false,
          "internalType": "address",
          "name": "",
          "type": "address"
        }
      ],
      "name": "SetAddrData",
      "type": "event"
    },
    {
      "anonymous": false,
      "inputs": [
        {
          "indexed": false,
          "internalType": "address",
          "name": "",
          "type": "address"
        }
      ],
      "name": "SetAdmin",
      "type": "event"
    },
    {
      "anonymous": false,
      "inputs": [
        {
          "indexed": false,
          "internalType": "string",
          "name": "",
          "type": "string"
        }
      ],
      "name": "SetUrlData",
      "type": "event"
    },
    {
      "inputs": [
        {
          "internalType": "address",
          "name": "_user",
          "type": "address"
        }
      ],
      "name": "addUser",
      "outputs": [],
      "stateMutability": "nonpayable",
      "type": "function"
    },
    {
      "inputs": [],
      "name": "admin",
      "outputs": [
        {
          "internalType": "address",
          "name": "",
          "type": "address"
        }
      ],
      "stateMutability": "view",
      "type": "function"
    },
    {
      "inputs": [
        {
          "internalType": "string",
          "name": "_addr",
          "type": "string"
        }
      ],
      "name": "checkAddr",
      "outputs": [
        {
          "components": [
            {
              "internalType": "string",
              "name": "x_pattern_value",
              "type": "string"
            },
            {
              "internalType": "string[]",
              "name": "labels",
              "type": "string[]"
            },
            {
              "internalType": "string",
              "name": "category",
              "type": "string"
            },
            {
              "internalType": "string",
              "name": "subType",
              "type": "string"
            }
          ],
          "internalType": "struct STIX_ADDR",
          "name": "",
          "type": "tuple"
        }
      ],
      "stateMutability": "view",
      "type": "function"
    },
    {
      "inputs": [
        {
          "internalType": "address",
          "name": "_cryptoAddr",
          "type": "address"
        }
      ],
      "name": "checkCryptoAddr",
      "outputs": [
        {
          "components": [
            {
              "internalType": "address",
              "name": "x_pattern_value",
              "type": "address"
            },
            {
              "internalType": "string[]",
              "name": "labels",
              "type": "string[]"
            },
            {
              "internalType": "string",
              "name": "category",
              "type": "string"
            },
            {
              "internalType": "string",
              "name": "subType",
              "type": "string"
            }
          ],
          "internalType": "struct STIX_CRYPTO_ADDR",
          "name": "",
          "type": "tuple"
        }
      ],
      "stateMutability": "view",
      "type": "function"
    },
    {
      "inputs": [
        {
          "internalType": "string",
          "name": "_addr",
          "type": "string"
        },
        {
          "internalType": "string[]",
          "name": "_labels",
          "type": "string[]"
        },
        {
          "internalType": "string",
          "name": "_category",
          "type": "string"
        },
        {
          "internalType": "string",
          "name": "_subType",
          "type": "string"
        }
      ],
      "name": "setAddrData",
      "outputs": [],
      "stateMutability": "nonpayable",
      "type": "function"
    },
    {
      "inputs": [
        {
          "internalType": "address",
          "name": "_newAdmin",
          "type": "address"
        }
      ],
      "name": "setAdmin",
      "outputs": [],
      "stateMutability": "nonpayable",
      "type": "function"
    },
    {
      "inputs": [
        {
          "internalType": "address",
          "name": "_cryptoAddr",
          "type": "address"
        },
        {
          "internalType": "string[]",
          "name": "_labels",
          "type": "string[]"
        },
        {
          "internalType": "string",
          "name": "_category",
          "type": "string"
        },
        {
          "internalType": "string",
          "name": "_subType",
          "type": "string"
        }
      ],
      "name": "setCryptoAddrData",
      "outputs": [],
      "stateMutability": "nonpayable",
      "type": "function"
    }
  ],
  "bytecode": "0x60806040523480156200001157600080fd5b5060405162001fa738038062001fa783398181016040528101906200003791906200015a565b600073ffffffffffffffffffffffffffffffffffffffff168173ffffffffffffffffffffffffffffffffffffffff1603620000a9576040517f08c379a0000000000000000000000000000000000000000000000000000000008152600401620000a090620001ed565b60405180910390fd5b806000806101000a81548173ffffffffffffffffffffffffffffffffffffffff021916908373ffffffffffffffffffffffffffffffffffffffff160217905550506200020f565b600080fd5b600073ffffffffffffffffffffffffffffffffffffffff82169050919050565b60006200012282620000f5565b9050919050565b620001348162000115565b81146200014057600080fd5b50565b600081519050620001548162000129565b92915050565b600060208284031215620001735762000172620000f0565b5b6000620001838482850162000143565b91505092915050565b600082825260208201905092915050565b7f61646d696e2073686f756c642062652070726f76696465640000000000000000600082015250565b6000620001d56018836200018c565b9150620001e2826200019d565b602082019050919050565b600060208201905081810360008301526200020881620001c6565b9050919050565b611d88806200021f6000396000f3fe608060405234801561001057600080fd5b506004361061007d5760003560e01c8063704b6c021161005b578063704b6c02146100d6578063987e690c146100f2578063b020c8f414610122578063f851a440146101525761007d565b8063171cb37914610082578063421b2d8b1461009e5780634a492795146100ba575b600080fd5b61009c60048036038101906100979190611216565b610170565b005b6100b860048036038101906100b3919061134b565b6103a8565b005b6100d460048036038101906100cf9190611378565b6104c8565b005b6100f060048036038101906100eb919061134b565b6107d7565b005b61010c6004803603810190610107919061134b565b6108ff565b60405161011991906115f4565b60405180910390f35b61013c60048036038101906101379190611616565b610bab565b60405161014991906116d7565b60405180910390f35b61015a610e72565b6040516101679190611708565b60405180910390f35b60008054906101000a900473ffffffffffffffffffffffffffffffffffffffff1673ffffffffffffffffffffffffffffffffffffffff163373ffffffffffffffffffffffffffffffffffffffff16146101fe576040517f08c379a00000000000000000000000000000000000000000000000000000000081526004016101f590611780565b60405180910390fd5b6000845103610242576040517f08c379a0000000000000000000000000000000000000000000000000000000008152600401610239906117ec565b60405180910390fd5b6000835103610286576040517f08c379a000000000000000000000000000000000000000000000000000000000815260040161027d90611858565b60405180910390fd5b60008251036102ca576040517f08c379a00000000000000000000000000000000000000000000000000000000081526004016102c1906118c4565b60405180910390fd5b6040518060800160405280858152602001848152602001838152602001828152506002856040516102fb9190611920565b9081526020016040518091039020600082015181600001908161031e9190611b4d565b50602082015181600101908051906020019061033b929190610e96565b5060408201518160020190816103519190611b4d565b5060608201518160030190816103679190611b4d565b509050507fe1e73cea801405ffb0b85349c05bd8c9f98aed462670e1b231c289fc5dbd7f378460405161039a9190611c58565b60405180910390a150505050565b60008054906101000a900473ffffffffffffffffffffffffffffffffffffffff1673ffffffffffffffffffffffffffffffffffffffff163373ffffffffffffffffffffffffffffffffffffffff1614610436576040517f08c379a000000000000000000000000000000000000000000000000000000000815260040161042d90611780565b60405180910390fd5b6001600360008373ffffffffffffffffffffffffffffffffffffffff1673ffffffffffffffffffffffffffffffffffffffff16815260200190815260200160002060006101000a81548160ff0219169083151502179055507f93e8ef53fa1762269961bdc02811e560fa10787f7f2f9c13f74ddad8221614d2816040516104bd9190611708565b60405180910390a150565b60008054906101000a900473ffffffffffffffffffffffffffffffffffffffff1673ffffffffffffffffffffffffffffffffffffffff163373ffffffffffffffffffffffffffffffffffffffff1614610556576040517f08c379a000000000000000000000000000000000000000000000000000000000815260040161054d90611780565b60405180910390fd5b600073ffffffffffffffffffffffffffffffffffffffff168473ffffffffffffffffffffffffffffffffffffffff16036105c5576040517f08c379a00000000000000000000000000000000000000000000000000000000081526004016105bc90611cc6565b60405180910390fd5b6000835103610609576040517f08c379a000000000000000000000000000000000000000000000000000000000815260040161060090611858565b60405180910390fd5b600082510361064d576040517f08c379a0000000000000000000000000000000000000000000000000000000008152600401610644906118c4565b60405180910390fd5b6000815103610691576040517f08c379a000000000000000000000000000000000000000000000000000000000815260040161068890611d32565b60405180910390fd5b60405180608001604052808573ffffffffffffffffffffffffffffffffffffffff16815260200184815260200183815260200182815250600160008673ffffffffffffffffffffffffffffffffffffffff1673ffffffffffffffffffffffffffffffffffffffff16815260200190815260200160002060008201518160000160006101000a81548173ffffffffffffffffffffffffffffffffffffffff021916908373ffffffffffffffffffffffffffffffffffffffff160217905550602082015181600101908051906020019061076a929190610e96565b5060408201518160020190816107809190611b4d565b5060608201518160030190816107969190611b4d565b509050507fd9664f79fcd2597f70c71280dbf8fccb5493b9206a42320187db26b24c484569846040516107c99190611708565b60405180910390a150505050565b60008054906101000a900473ffffffffffffffffffffffffffffffffffffffff1673ffffffffffffffffffffffffffffffffffffffff163373ffffffffffffffffffffffffffffffffffffffff1614610865576040517f08c379a000000000000000000000000000000000000000000000000000000000815260040161085c90611780565b60405180910390fd5b806000806101000a81548173ffffffffffffffffffffffffffffffffffffffff021916908373ffffffffffffffffffffffffffffffffffffffff1602179055507f5a272403b402d892977df56625f4164ccaf70ca3863991c43ecfe76a6905b0a160008054906101000a900473ffffffffffffffffffffffffffffffffffffffff166040516108f49190611708565b60405180910390a150565b610907610eef565b600160008373ffffffffffffffffffffffffffffffffffffffff1673ffffffffffffffffffffffffffffffffffffffff1681526020019081526020016000206040518060800160405290816000820160009054906101000a900473ffffffffffffffffffffffffffffffffffffffff1673ffffffffffffffffffffffffffffffffffffffff1673ffffffffffffffffffffffffffffffffffffffff16815260200160018201805480602002602001604051908101604052809291908181526020016000905b82821015610a785783829060005260206000200180546109eb90611966565b80601f0160208091040260200160405190810160405280929190818152602001828054610a1790611966565b8015610a645780601f10610a3957610100808354040283529160200191610a64565b820191906000526020600020905b815481529060010190602001808311610a4757829003601f168201915b5050505050815260200190600101906109cc565b505050508152602001600282018054610a9090611966565b80601f0160208091040260200160405190810160405280929190818152602001828054610abc90611966565b8015610b095780601f10610ade57610100808354040283529160200191610b09565b820191906000526020600020905b815481529060010190602001808311610aec57829003601f168201915b50505050508152602001600382018054610b2290611966565b80601f0160208091040260200160405190810160405280929190818152602001828054610b4e90611966565b8015610b9b5780601f10610b7057610100808354040283529160200191610b9b565b820191906000526020600020905b815481529060010190602001808311610b7e57829003601f168201915b5050505050815250509050919050565b610bb3610f2d565b600282604051610bc39190611920565b9081526020016040518091039020604051806080016040529081600082018054610bec90611966565b80601f0160208091040260200160405190810160405280929190818152602001828054610c1890611966565b8015610c655780601f10610c3a57610100808354040283529160200191610c65565b820191906000526020600020905b815481529060010190602001808311610c4857829003601f168201915b5050505050815260200160018201805480602002602001604051908101604052809291908181526020016000905b82821015610d3f578382906000526020600020018054610cb290611966565b80601f0160208091040260200160405190810160405280929190818152602001828054610cde90611966565b8015610d2b5780601f10610d0057610100808354040283529160200191610d2b565b820191906000526020600020905b815481529060010190602001808311610d0e57829003601f168201915b505050505081526020019060010190610c93565b505050508152602001600282018054610d5790611966565b80601f0160208091040260200160405190810160405280929190818152602001828054610d8390611966565b8015610dd05780601f10610da557610100808354040283529160200191610dd0565b820191906000526020600020905b815481529060010190602001808311610db357829003601f168201915b50505050508152602001600382018054610de990611966565b80601f0160208091040260200160405190810160405280929190818152602001828054610e1590611966565b8015610e625780601f10610e3757610100808354040283529160200191610e62565b820191906000526020600020905b815481529060010190602001808311610e4557829003601f168201915b5050505050815250509050919050565b60008054906101000a900473ffffffffffffffffffffffffffffffffffffffff1681565b828054828255906000526020600020908101928215610ede579160200282015b82811115610edd578251829081610ecd9190611b4d565b5091602001919060010190610eb6565b5b509050610eeb9190610f55565b5090565b6040518060800160405280600073ffffffffffffffffffffffffffffffffffffffff1681526020016060815260200160608152602001606081525090565b6040518060800160405280606081526020016060815260200160608152602001606081525090565b5b80821115610f755760008181610f6c9190610f79565b50600101610f56565b5090565b508054610f8590611966565b6000825580601f10610f975750610fb6565b601f016020900490600052602060002090810190610fb59190610fb9565b5b50565b5b80821115610fd2576000816000905550600101610fba565b5090565b6000604051905090565b600080fd5b600080fd5b600080fd5b600080fd5b6000601f19601f8301169050919050565b7f4e487b7100000000000000000000000000000000000000000000000000000000600052604160045260246000fd5b61103d82610ff4565b810181811067ffffffffffffffff8211171561105c5761105b611005565b5b80604052505050565b600061106f610fd6565b905061107b8282611034565b919050565b600067ffffffffffffffff82111561109b5761109a611005565b5b6110a482610ff4565b9050602081019050919050565b82818337600083830152505050565b60006110d36110ce84611080565b611065565b9050828152602081018484840111156110ef576110ee610fef565b5b6110fa8482856110b1565b509392505050565b600082601f83011261111757611116610fea565b5b81356111278482602086016110c0565b91505092915050565b600067ffffffffffffffff82111561114b5761114a611005565b5b602082029050602081019050919050565b600080fd5b600061117461116f84611130565b611065565b905080838252602082019050602084028301858111156111975761119661115c565b5b835b818110156111de57803567ffffffffffffffff8111156111bc576111bb610fea565b5b8086016111c98982611102565b85526020850194505050602081019050611199565b5050509392505050565b600082601f8301126111fd576111fc610fea565b5b813561120d848260208601611161565b91505092915050565b600080600080608085870312156112305761122f610fe0565b5b600085013567ffffffffffffffff81111561124e5761124d610fe5565b5b61125a87828801611102565b945050602085013567ffffffffffffffff81111561127b5761127a610fe5565b5b611287878288016111e8565b935050604085013567ffffffffffffffff8111156112a8576112a7610fe5565b5b6112b487828801611102565b925050606085013567ffffffffffffffff8111156112d5576112d4610fe5565b5b6112e187828801611102565b91505092959194509250565b600073ffffffffffffffffffffffffffffffffffffffff82169050919050565b6000611318826112ed565b9050919050565b6113288161130d565b811461133357600080fd5b50565b6000813590506113458161131f565b92915050565b60006020828403121561136157611360610fe0565b5b600061136f84828501611336565b91505092915050565b6000806000806080858703121561139257611391610fe0565b5b60006113a087828801611336565b945050602085013567ffffffffffffffff8111156113c1576113c0610fe5565b5b6113cd878288016111e8565b935050604085013567ffffffffffffffff8111156113ee576113ed610fe5565b5b6113fa87828801611102565b925050606085013567ffffffffffffffff81111561141b5761141a610fe5565b5b61142787828801611102565b91505092959194509250565b61143c8161130d565b82525050565b600081519050919050565b600082825260208201905092915050565b6000819050602082019050919050565b600081519050919050565b600082825260208201905092915050565b60005b838110156114a857808201518184015260208101905061148d565b60008484015250505050565b60006114bf8261146e565b6114c98185611479565b93506114d981856020860161148a565b6114e281610ff4565b840191505092915050565b60006114f983836114b4565b905092915050565b6000602082019050919050565b600061151982611442565b611523818561144d565b9350836020820285016115358561145e565b8060005b85811015611571578484038952815161155285826114ed565b945061155d83611501565b925060208a01995050600181019050611539565b50829750879550505050505092915050565b600060808301600083015161159b6000860182611433565b50602083015184820360208601526115b3828261150e565b915050604083015184820360408601526115cd82826114b4565b915050606083015184820360608601526115e782826114b4565b9150508091505092915050565b6000602082019050818103600083015261160e8184611583565b905092915050565b60006020828403121561162c5761162b610fe0565b5b600082013567ffffffffffffffff81111561164a57611649610fe5565b5b61165684828501611102565b91505092915050565b6000608083016000830151848203600086015261167c82826114b4565b91505060208301518482036020860152611696828261150e565b915050604083015184820360408601526116b082826114b4565b915050606083015184820360608601526116ca82826114b4565b9150508091505092915050565b600060208201905081810360008301526116f1818461165f565b905092915050565b6117028161130d565b82525050565b600060208201905061171d60008301846116f9565b92915050565b600082825260208201905092915050565b7f4f6e6c792061646d696e2063616e206578656375746500000000000000000000600082015250565b600061176a601683611723565b915061177582611734565b602082019050919050565b600060208201905081810360008301526117998161175d565b9050919050565b7f75726c2073686f756c642062652070726f766964656400000000000000000000600082015250565b60006117d6601683611723565b91506117e1826117a0565b602082019050919050565b60006020820190508181036000830152611805816117c9565b9050919050565b7f6c6162656c732073686f756c642062652070726f766964656400000000000000600082015250565b6000611842601983611723565b915061184d8261180c565b602082019050919050565b6000602082019050818103600083015261187181611835565b9050919050565b7f63617465676f72792073686f756c642062652070726f76696465640000000000600082015250565b60006118ae601b83611723565b91506118b982611878565b602082019050919050565b600060208201905081810360008301526118dd816118a1565b9050919050565b600081905092915050565b60006118fa8261146e565b61190481856118e4565b935061191481856020860161148a565b80840191505092915050565b600061192c82846118ef565b915081905092915050565b7f4e487b7100000000000000000000000000000000000000000000000000000000600052602260045260246000fd5b6000600282049050600182168061197e57607f821691505b60208210810361199157611990611937565b5b50919050565b60008190508160005260206000209050919050565b60006020601f8301049050919050565b600082821b905092915050565b6000600883026119f97fffffffffffffffffffffffffffffffffffffffffffffffffffffffffffffffff826119bc565b611a0386836119bc565b95508019841693508086168417925050509392505050565b6000819050919050565b6000819050919050565b6000611a4a611a45611a4084611a1b565b611a25565b611a1b565b9050919050565b6000819050919050565b611a6483611a2f565b611a78611a7082611a51565b8484546119c9565b825550505050565b600090565b611a8d611a80565b611a98818484611a5b565b505050565b5b81811015611abc57611ab1600082611a85565b600181019050611a9e565b5050565b601f821115611b0157611ad281611997565b611adb846119ac565b81016020851015611aea578190505b611afe611af6856119ac565b830182611a9d565b50505b505050565b600082821c905092915050565b6000611b2460001984600802611b06565b1980831691505092915050565b6000611b3d8383611b13565b9150826002028217905092915050565b611b568261146e565b67ffffffffffffffff811115611b6f57611b6e611005565b5b611b798254611966565b611b84828285611ac0565b600060209050601f831160018114611bb75760008415611ba5578287015190505b611baf8582611b31565b865550611c17565b601f198416611bc586611997565b60005b82811015611bed57848901518255600182019150602085019450602081019050611bc8565b86831015611c0a5784890151611c06601f891682611b13565b8355505b6001600288020188555050505b505050505050565b6000611c2a8261146e565b611c348185611723565b9350611c4481856020860161148a565b611c4d81610ff4565b840191505092915050565b60006020820190508181036000830152611c728184611c1f565b905092915050565b7f616464726573732073686f756c642062652070726f7669646564000000000000600082015250565b6000611cb0601a83611723565b9150611cbb82611c7a565b602082019050919050565b60006020820190508181036000830152611cdf81611ca3565b9050919050565b7f737562547970652073686f756c642062652070726f7669646564000000000000600082015250565b6000611d1c601a83611723565b9150611d2782611ce6565b602082019050919050565b60006020820190508181036000830152611d4b81611d0f565b905091905056fea2646970667358221220aa1c5a76eec2e3536239b3756c751dccff894766267b634404b8b8a33419b1dd64736f6c63430008180033",
  "linkReferences": {},
  "deployedLinkReferences": {}
}