{
  "_format": "hh-sol-artifact-1",
  "contractName": "UppsalaV2",
  "sourceName": "contracts/UppsalaV2.sol",
  "abi": [
    {
      "inputs": [
        {
          "internalType": "address",
          "name": "_admin",
          "type": "address"
        }
      ],
      "stateMutability": "nonpayable",
      "type": "constructor"
    },
    {
      "anonymous": false,
      "inputs": [
        {
          "indexed": false,
          "internalType": "address",
          "name": "",
          "type": "address"
        }
      ],
      "name": "AddUser",
      "type": "event"
    },
    {
      "anonymous": false,
      "inputs": [
        {
          "indexed": false,
          "internalType": "address",
          "name": "",
          "type": "address"
        }
      ],
      "name": "SetAdmin",
      "type": "event"
    },
    {
      "anonymous": false,
      "inputs": [
        {
          "indexed": false,
          "internalType": "string",
          "name": "",
          "type": "string"
        }
      ],
      "name": "SetStixData",
      "type": "event"
    },
    {
      "inputs": [
        {
          "internalType": "address",
          "name": "_user",
          "type": "address"
        }
      ],
      "name": "addUser",
      "outputs": [],
      "stateMutability": "nonpayable",
      "type": "function"
    },
    {
      "inputs": [],
      "name": "admin",
      "outputs": [
        {
          "internalType": "address",
          "name": "",
          "type": "address"
        }
      ],
      "stateMutability": "view",
      "type": "function"
    },
    {
      "inputs": [
        {
          "internalType": "string",
          "name": "_value",
          "type": "string"
        },
        {
          "internalType": "string",
          "name": "message",
          "type": "string"
        },
        {
          "components": [
            {
              "internalType": "uint8",
              "name": "v",
              "type": "uint8"
            },
            {
              "internalType": "bytes32",
              "name": "r",
              "type": "bytes32"
            },
            {
              "internalType": "bytes32",
              "name": "s",
              "type": "bytes32"
            }
          ],
          "internalType": "struct SignatureExpanded",
          "name": "sig",
          "type": "tuple"
        }
      ],
      "name": "checkStixData",
      "outputs": [
        {
          "components": [
            {
              "internalType": "string",
              "name": "x_pattern_value",
              "type": "string"
            },
            {
              "internalType": "string[]",
              "name": "labels",
              "type": "string[]"
            },
            {
              "internalType": "string",
              "name": "category",
              "type": "string"
            },
            {
              "internalType": "string",
              "name": "subType",
              "type": "string"
            }
          ],
          "internalType": "struct STIX_DATA",
          "name": "",
          "type": "tuple"
        }
      ],
      "stateMutability": "view",
      "type": "function"
    },
    {
      "inputs": [
        {
          "internalType": "address",
          "name": "_newAdmin",
          "type": "address"
        }
      ],
      "name": "setAdmin",
      "outputs": [],
      "stateMutability": "nonpayable",
      "type": "function"
    },
    {
      "inputs": [
        {
          "internalType": "string",
          "name": "_value",
          "type": "string"
        },
        {
          "internalType": "string[]",
          "name": "_labels",
          "type": "string[]"
        },
        {
          "internalType": "string",
          "name": "_category",
          "type": "string"
        },
        {
          "internalType": "string",
          "name": "_subType",
          "type": "string"
        }
      ],
      "name": "setStixData",
      "outputs": [],
      "stateMutability": "nonpayable",
      "type": "function"
    },
    {
      "inputs": [
        {
          "internalType": "bytes",
          "name": "sig",
          "type": "bytes"
        }
      ],
      "name": "splitSignature",
      "outputs": [
        {
          "internalType": "bytes32",
          "name": "r",
          "type": "bytes32"
        },
        {
          "internalType": "bytes32",
          "name": "s",
          "type": "bytes32"
        },
        {
          "internalType": "uint8",
          "name": "v",
          "type": "uint8"
        }
      ],
      "stateMutability": "pure",
      "type": "function"
    }
  ],
  "bytecode": "0x60806040523480156200001157600080fd5b5060405162001f5f38038062001f5f83398181016040528101906200003791906200015a565b600073ffffffffffffffffffffffffffffffffffffffff168173ffffffffffffffffffffffffffffffffffffffff1603620000a9576040517f08c379a0000000000000000000000000000000000000000000000000000000008152600401620000a090620001ed565b60405180910390fd5b806000806101000a81548173ffffffffffffffffffffffffffffffffffffffff021916908373ffffffffffffffffffffffffffffffffffffffff160217905550506200020f565b600080fd5b600073ffffffffffffffffffffffffffffffffffffffff82169050919050565b60006200012282620000f5565b9050919050565b620001348162000115565b81146200014057600080fd5b50565b600081519050620001548162000129565b92915050565b600060208284031215620001735762000172620000f0565b5b6000620001838482850162000143565b91505092915050565b600082825260208201905092915050565b7f61646d696e2073686f756c642062652070726f76696465640000000000000000600082015250565b6000620001d56018836200018c565b9150620001e2826200019d565b602082019050919050565b600060208201905081810360008301526200020881620001c6565b9050919050565b611d40806200021f6000396000f3fe608060405234801561001057600080fd5b50600436106100625760003560e01c8063421b2d8b146100675780634f7ba79d14610083578063704b6c02146100b3578063a7bb5803146100cf578063e33585cd14610101578063f851a4401461011d575b600080fd5b610081600480360381019061007c9190610d00565b61013b565b005b61009d60048036038101906100989190610ef7565b61025b565b6040516100aa9190611140565b60405180910390f35b6100cd60048036038101906100c89190610d00565b61062d565b005b6100e960048036038101906100e49190611203565b610755565b6040516100f893929190611281565b60405180910390f35b61011b60048036038101906101169190611399565b6107bd565b005b6101256109b1565b604051610132919061147f565b60405180910390f35b60008054906101000a900473ffffffffffffffffffffffffffffffffffffffff1673ffffffffffffffffffffffffffffffffffffffff163373ffffffffffffffffffffffffffffffffffffffff16146101c9576040517f08c379a00000000000000000000000000000000000000000000000000000000081526004016101c0906114f7565b60405180910390fd5b6001600260008373ffffffffffffffffffffffffffffffffffffffff1673ffffffffffffffffffffffffffffffffffffffff16815260200190815260200160002060006101000a81548160ff0219169083151502179055507f93e8ef53fa1762269961bdc02811e560fa10787f7f2f9c13f74ddad8221614d281604051610250919061147f565b60405180910390a150565b610263610b8c565b83838360006102d284848080601f016020809104026020016040519081016040528093929190818152602001838380828437600081840152601f19601f820116905080830192505050505050508360000160208101906102c39190611543565b846020013585604001356109d5565b905060011515600260008373ffffffffffffffffffffffffffffffffffffffff1673ffffffffffffffffffffffffffffffffffffffff16815260200190815260200160002060009054906101000a900460ff16151514610367576040517f08c379a000000000000000000000000000000000000000000000000000000000815260040161035e906115bc565b60405180910390fd5b6001896040516103779190611618565b90815260200160405180910390206040518060800160405290816000820180546103a09061165e565b80601f01602080910402602001604051908101604052809291908181526020018280546103cc9061165e565b80156104195780601f106103ee57610100808354040283529160200191610419565b820191906000526020600020905b8154815290600101906020018083116103fc57829003601f168201915b5050505050815260200160018201805480602002602001604051908101604052809291908181526020016000905b828210156104f35783829060005260206000200180546104669061165e565b80601f01602080910402602001604051908101604052809291908181526020018280546104929061165e565b80156104df5780601f106104b4576101008083540402835291602001916104df565b820191906000526020600020905b8154815290600101906020018083116104c257829003601f168201915b505050505081526020019060010190610447565b50505050815260200160028201805461050b9061165e565b80601f01602080910402602001604051908101604052809291908181526020018280546105379061165e565b80156105845780601f1061055957610100808354040283529160200191610584565b820191906000526020600020905b81548152906001019060200180831161056757829003601f168201915b5050505050815260200160038201805461059d9061165e565b80601f01602080910402602001604051908101604052809291908181526020018280546105c99061165e565b80156106165780601f106105eb57610100808354040283529160200191610616565b820191906000526020600020905b8154815290600101906020018083116105f957829003601f168201915b505050505081525050945050505050949350505050565b60008054906101000a900473ffffffffffffffffffffffffffffffffffffffff1673ffffffffffffffffffffffffffffffffffffffff163373ffffffffffffffffffffffffffffffffffffffff16146106bb576040517f08c379a00000000000000000000000000000000000000000000000000000000081526004016106b2906114f7565b60405180910390fd5b806000806101000a81548173ffffffffffffffffffffffffffffffffffffffff021916908373ffffffffffffffffffffffffffffffffffffffff1602179055507f5a272403b402d892977df56625f4164ccaf70ca3863991c43ecfe76a6905b0a160008054906101000a900473ffffffffffffffffffffffffffffffffffffffff1660405161074a919061147f565b60405180910390a150565b6000806000604184511461079e576040517f08c379a0000000000000000000000000000000000000000000000000000000008152600401610795906116db565b60405180910390fd5b6020840151925060408401519150606084015160001a90509193909250565b60008054906101000a900473ffffffffffffffffffffffffffffffffffffffff1673ffffffffffffffffffffffffffffffffffffffff163373ffffffffffffffffffffffffffffffffffffffff161461084b576040517f08c379a0000000000000000000000000000000000000000000000000000000008152600401610842906114f7565b60405180910390fd5b600084510361088f576040517f08c379a000000000000000000000000000000000000000000000000000000000815260040161088690611747565b60405180910390fd5b60008251036108d3576040517f08c379a00000000000000000000000000000000000000000000000000000000081526004016108ca906117b3565b60405180910390fd5b6040518060800160405280858152602001848152602001838152602001828152506001856040516109049190611618565b908152602001604051809103902060008201518160000190816109279190611989565b506020820151816001019080519060200190610944929190610bb4565b50604082015181600201908161095a9190611989565b5060608201518160030190816109709190611989565b509050507f52c30ee076e1cebbc101cdfd876da78cacfe85d3ea553f1c6c6207c875cd76cf846040516109a39190611a94565b60405180910390a150505050565b60008054906101000a900473ffffffffffffffffffffffffffffffffffffffff1681565b6000806109e28651610a6c565b866040516020016109f4929190611b02565b604051602081830303815290604052905060008180519060200120905060018187878760405160008152602001604052604051610a349493929190611b31565b6020604051602081039080840390855afa158015610a56573d6000803e3d6000fd5b5050506020604051035192505050949350505050565b606060006001905060008390505b6000600a82610a899190611bd4565b91508114610aa4578180610a9c90611c05565b925050610a7a565b60008267ffffffffffffffff811115610ac057610abf610d48565b5b6040519080825280601f01601f191660200182016040528015610af25781602001600182028036833780820191505090505b5090505b600115610b81578280610b0890611c4d565b935050600a85610b189190611c76565b6030610b249190611ca7565b60f81b818481518110610b3a57610b39611cdb565b5b60200101907effffffffffffffffffffffffffffffffffffffffffffffffffffffffffffff1916908160001a905350600a85610b769190611bd4565b945060008303610af6575b809350505050919050565b6040518060800160405280606081526020016060815260200160608152602001606081525090565b828054828255906000526020600020908101928215610bfc579160200282015b82811115610bfb578251829081610beb9190611989565b5091602001919060010190610bd4565b5b509050610c099190610c0d565b5090565b5b80821115610c2d5760008181610c249190610c31565b50600101610c0e565b5090565b508054610c3d9061165e565b6000825580601f10610c4f5750610c6e565b601f016020900490600052602060002090810190610c6d9190610c71565b5b50565b5b80821115610c8a576000816000905550600101610c72565b5090565b6000604051905090565b600080fd5b600080fd5b600073ffffffffffffffffffffffffffffffffffffffff82169050919050565b6000610ccd82610ca2565b9050919050565b610cdd81610cc2565b8114610ce857600080fd5b50565b600081359050610cfa81610cd4565b92915050565b600060208284031215610d1657610d15610c98565b5b6000610d2484828501610ceb565b91505092915050565b600080fd5b600080fd5b6000601f19601f8301169050919050565b7f4e487b7100000000000000000000000000000000000000000000000000000000600052604160045260246000fd5b610d8082610d37565b810181811067ffffffffffffffff82111715610d9f57610d9e610d48565b5b80604052505050565b6000610db2610c8e565b9050610dbe8282610d77565b919050565b600067ffffffffffffffff821115610dde57610ddd610d48565b5b610de782610d37565b9050602081019050919050565b82818337600083830152505050565b6000610e16610e1184610dc3565b610da8565b905082815260208101848484011115610e3257610e31610d32565b5b610e3d848285610df4565b509392505050565b600082601f830112610e5a57610e59610d2d565b5b8135610e6a848260208601610e03565b91505092915050565b600080fd5b600080fd5b60008083601f840112610e9357610e92610d2d565b5b8235905067ffffffffffffffff811115610eb057610eaf610e73565b5b602083019150836001820283011115610ecc57610ecb610e78565b5b9250929050565b600080fd5b600060608284031215610eee57610eed610ed3565b5b81905092915050565b60008060008060a08587031215610f1157610f10610c98565b5b600085013567ffffffffffffffff811115610f2f57610f2e610c9d565b5b610f3b87828801610e45565b945050602085013567ffffffffffffffff811115610f5c57610f5b610c9d565b5b610f6887828801610e7d565b93509350506040610f7b87828801610ed8565b91505092959194509250565b600081519050919050565b600082825260208201905092915050565b60005b83811015610fc1578082015181840152602081019050610fa6565b60008484015250505050565b6000610fd882610f87565b610fe28185610f92565b9350610ff2818560208601610fa3565b610ffb81610d37565b840191505092915050565b600081519050919050565b600082825260208201905092915050565b6000819050602082019050919050565b600061103e8383610fcd565b905092915050565b6000602082019050919050565b600061105e82611006565b6110688185611011565b93508360208202850161107a85611022565b8060005b858110156110b657848403895281516110978582611032565b94506110a283611046565b925060208a0199505060018101905061107e565b50829750879550505050505092915050565b600060808301600083015184820360008601526110e58282610fcd565b915050602083015184820360208601526110ff8282611053565b915050604083015184820360408601526111198282610fcd565b915050606083015184820360608601526111338282610fcd565b9150508091505092915050565b6000602082019050818103600083015261115a81846110c8565b905092915050565b600067ffffffffffffffff82111561117d5761117c610d48565b5b61118682610d37565b9050602081019050919050565b60006111a66111a184611162565b610da8565b9050828152602081018484840111156111c2576111c1610d32565b5b6111cd848285610df4565b509392505050565b600082601f8301126111ea576111e9610d2d565b5b81356111fa848260208601611193565b91505092915050565b60006020828403121561121957611218610c98565b5b600082013567ffffffffffffffff81111561123757611236610c9d565b5b611243848285016111d5565b91505092915050565b6000819050919050565b61125f8161124c565b82525050565b600060ff82169050919050565b61127b81611265565b82525050565b60006060820190506112966000830186611256565b6112a36020830185611256565b6112b06040830184611272565b949350505050565b600067ffffffffffffffff8211156112d3576112d2610d48565b5b602082029050602081019050919050565b60006112f76112f2846112b8565b610da8565b9050808382526020820190506020840283018581111561131a57611319610e78565b5b835b8181101561136157803567ffffffffffffffff81111561133f5761133e610d2d565b5b80860161134c8982610e45565b8552602085019450505060208101905061131c565b5050509392505050565b600082601f8301126113805761137f610d2d565b5b81356113908482602086016112e4565b91505092915050565b600080600080608085870312156113b3576113b2610c98565b5b600085013567ffffffffffffffff8111156113d1576113d0610c9d565b5b6113dd87828801610e45565b945050602085013567ffffffffffffffff8111156113fe576113fd610c9d565b5b61140a8782880161136b565b935050604085013567ffffffffffffffff81111561142b5761142a610c9d565b5b61143787828801610e45565b925050606085013567ffffffffffffffff81111561145857611457610c9d565b5b61146487828801610e45565b91505092959194509250565b61147981610cc2565b82525050565b60006020820190506114946000830184611470565b92915050565b600082825260208201905092915050565b7f4f6e6c792061646d696e2063616e206578656375746500000000000000000000600082015250565b60006114e160168361149a565b91506114ec826114ab565b602082019050919050565b60006020820190508181036000830152611510816114d4565b9050919050565b61152081611265565b811461152b57600080fd5b50565b60008135905061153d81611517565b92915050565b60006020828403121561155957611558610c98565b5b60006115678482850161152e565b91505092915050565b7f4f6e6c7920726567697374657265642075736572732063616e2063616c6c0000600082015250565b60006115a6601e8361149a565b91506115b182611570565b602082019050919050565b600060208201905081810360008301526115d581611599565b9050919050565b600081905092915050565b60006115f282610f87565b6115fc81856115dc565b935061160c818560208601610fa3565b80840191505092915050565b600061162482846115e7565b915081905092915050565b7f4e487b7100000000000000000000000000000000000000000000000000000000600052602260045260246000fd5b6000600282049050600182168061167657607f821691505b6020821081036116895761168861162f565b5b50919050565b7f696e76616c6964207369676e6174757265206c656e6774680000000000000000600082015250565b60006116c560188361149a565b91506116d08261168f565b602082019050919050565b600060208201905081810360008301526116f4816116b8565b9050919050565b7f76616c75652073686f756c642062652070726f76696465640000000000000000600082015250565b600061173160188361149a565b915061173c826116fb565b602082019050919050565b6000602082019050818103600083015261176081611724565b9050919050565b7f63617465676f72792073686f756c642062652070726f76696465640000000000600082015250565b600061179d601b8361149a565b91506117a882611767565b602082019050919050565b600060208201905081810360008301526117cc81611790565b9050919050565b60008190508160005260206000209050919050565b60006020601f8301049050919050565b600082821b905092915050565b6000600883026118357fffffffffffffffffffffffffffffffffffffffffffffffffffffffffffffffff826117f8565b61183f86836117f8565b95508019841693508086168417925050509392505050565b6000819050919050565b6000819050919050565b600061188661188161187c84611857565b611861565b611857565b9050919050565b6000819050919050565b6118a08361186b565b6118b46118ac8261188d565b848454611805565b825550505050565b600090565b6118c96118bc565b6118d4818484611897565b505050565b5b818110156118f8576118ed6000826118c1565b6001810190506118da565b5050565b601f82111561193d5761190e816117d3565b611917846117e8565b81016020851015611926578190505b61193a611932856117e8565b8301826118d9565b50505b505050565b600082821c905092915050565b600061196060001984600802611942565b1980831691505092915050565b6000611979838361194f565b9150826002028217905092915050565b61199282610f87565b67ffffffffffffffff8111156119ab576119aa610d48565b5b6119b5825461165e565b6119c08282856118fc565b600060209050601f8311600181146119f357600084156119e1578287015190505b6119eb858261196d565b865550611a53565b601f198416611a01866117d3565b60005b82811015611a2957848901518255600182019150602085019450602081019050611a04565b86831015611a465784890151611a42601f89168261194f565b8355505b6001600288020188555050505b505050505050565b6000611a6682610f87565b611a70818561149a565b9350611a80818560208601610fa3565b611a8981610d37565b840191505092915050565b60006020820190508181036000830152611aae8184611a5b565b905092915050565b7f19457468657265756d205369676e6564204d6573736167653a0a000000000000600082015250565b6000611aec601a836115dc565b9150611af782611ab6565b601a82019050919050565b6000611b0d82611adf565b9150611b1982856115e7565b9150611b2582846115e7565b91508190509392505050565b6000608082019050611b466000830187611256565b611b536020830186611272565b611b606040830185611256565b611b6d6060830184611256565b95945050505050565b7f4e487b7100000000000000000000000000000000000000000000000000000000600052601260045260246000fd5b7f4e487b7100000000000000000000000000000000000000000000000000000000600052601160045260246000fd5b6000611bdf82611857565b9150611bea83611857565b925082611bfa57611bf9611b76565b5b828204905092915050565b6000611c1082611857565b91507fffffffffffffffffffffffffffffffffffffffffffffffffffffffffffffffff8203611c4257611c41611ba5565b5b600182019050919050565b6000611c5882611857565b915060008203611c6b57611c6a611ba5565b5b600182039050919050565b6000611c8182611857565b9150611c8c83611857565b925082611c9c57611c9b611b76565b5b828206905092915050565b6000611cb282611857565b9150611cbd83611857565b9250828201905080821115611cd557611cd4611ba5565b5b92915050565b7f4e487b7100000000000000000000000000000000000000000000000000000000600052603260045260246000fdfea264697066735822122082a579bfd6884c1f6bd7f3ee42f705dbd719c6c2be8ab4133b97508c965a674b64736f6c63430008180033",
  "linkReferences": {},
  "deployedLinkReferences": {}
}