{
  "_format": "hh-sol-artifact-1",
  "contractName": "Uppsala",
  "sourceName": "contracts/Uppsala.sol",
  "abi": [
    {
      "inputs": [
        {
          "internalType": "address",
          "name": "_admin",
          "type": "address"
        }
      ],
      "stateMutability": "nonpayable",
      "type": "constructor"
    },
    {
      "anonymous": false,
      "inputs": [
        {
          "indexed": false,
          "internalType": "address",
          "name": "",
          "type": "address"
        }
      ],
      "name": "AddUser",
      "type": "event"
    },
    {
      "anonymous": false,
      "inputs": [
        {
          "indexed": false,
          "internalType": "address",
          "name": "",
          "type": "address"
        }
      ],
      "name": "SetAddrData",
      "type": "event"
    },
    {
      "anonymous": false,
      "inputs": [
        {
          "indexed": false,
          "internalType": "address",
          "name": "",
          "type": "address"
        }
      ],
      "name": "SetAdmin",
      "type": "event"
    },
    {
      "anonymous": false,
      "inputs": [
        {
          "indexed": false,
          "internalType": "string",
          "name": "",
          "type": "string"
        }
      ],
      "name": "SetUrlData",
      "type": "event"
    },
    {
      "inputs": [
        {
          "internalType": "address",
          "name": "_user",
          "type": "address"
        }
      ],
      "name": "addUser",
      "outputs": [],
      "stateMutability": "nonpayable",
      "type": "function"
    },
    {
      "inputs": [],
      "name": "admin",
      "outputs": [
        {
          "internalType": "address",
          "name": "",
          "type": "address"
        }
      ],
      "stateMutability": "view",
      "type": "function"
    },
    {
      "inputs": [
        {
          "internalType": "string",
          "name": "_addr",
          "type": "string"
        },
        {
          "internalType": "string",
          "name": "message",
          "type": "string"
        },
        {
          "components": [
            {
              "internalType": "uint8",
              "name": "v",
              "type": "uint8"
            },
            {
              "internalType": "bytes32",
              "name": "r",
              "type": "bytes32"
            },
            {
              "internalType": "bytes32",
              "name": "s",
              "type": "bytes32"
            }
          ],
          "internalType": "struct SignatureExpanded",
          "name": "sig",
          "type": "tuple"
        }
      ],
      "name": "checkAddr",
      "outputs": [
        {
          "components": [
            {
              "internalType": "string",
              "name": "x_pattern_value",
              "type": "string"
            },
            {
              "internalType": "string[]",
              "name": "labels",
              "type": "string[]"
            },
            {
              "internalType": "string",
              "name": "category",
              "type": "string"
            },
            {
              "internalType": "string",
              "name": "subType",
              "type": "string"
            }
          ],
          "internalType": "struct STIX_ADDR",
          "name": "",
          "type": "tuple"
        }
      ],
      "stateMutability": "view",
      "type": "function"
    },
    {
      "inputs": [
        {
          "internalType": "address",
          "name": "_cryptoAddr",
          "type": "address"
        },
        {
          "internalType": "string",
          "name": "message",
          "type": "string"
        },
        {
          "components": [
            {
              "internalType": "uint8",
              "name": "v",
              "type": "uint8"
            },
            {
              "internalType": "bytes32",
              "name": "r",
              "type": "bytes32"
            },
            {
              "internalType": "bytes32",
              "name": "s",
              "type": "bytes32"
            }
          ],
          "internalType": "struct SignatureExpanded",
          "name": "sig",
          "type": "tuple"
        }
      ],
      "name": "checkCryptoAddr",
      "outputs": [
        {
          "components": [
            {
              "internalType": "address",
              "name": "x_pattern_value",
              "type": "address"
            },
            {
              "internalType": "string[]",
              "name": "labels",
              "type": "string[]"
            },
            {
              "internalType": "string",
              "name": "category",
              "type": "string"
            },
            {
              "internalType": "string",
              "name": "subType",
              "type": "string"
            }
          ],
          "internalType": "struct STIX_CRYPTO_ADDR",
          "name": "",
          "type": "tuple"
        }
      ],
      "stateMutability": "view",
      "type": "function"
    },
    {
      "inputs": [
        {
          "internalType": "string",
          "name": "_addr",
          "type": "string"
        },
        {
          "internalType": "string[]",
          "name": "_labels",
          "type": "string[]"
        },
        {
          "internalType": "string",
          "name": "_category",
          "type": "string"
        },
        {
          "internalType": "string",
          "name": "_subType",
          "type": "string"
        }
      ],
      "name": "setAddrData",
      "outputs": [],
      "stateMutability": "nonpayable",
      "type": "function"
    },
    {
      "inputs": [
        {
          "internalType": "address",
          "name": "_newAdmin",
          "type": "address"
        }
      ],
      "name": "setAdmin",
      "outputs": [],
      "stateMutability": "nonpayable",
      "type": "function"
    },
    {
      "inputs": [
        {
          "internalType": "address",
          "name": "_cryptoAddr",
          "type": "address"
        },
        {
          "internalType": "string[]",
          "name": "_labels",
          "type": "string[]"
        },
        {
          "internalType": "string",
          "name": "_category",
          "type": "string"
        },
        {
          "internalType": "string",
          "name": "_subType",
          "type": "string"
        }
      ],
      "name": "setCryptoAddrData",
      "outputs": [],
      "stateMutability": "nonpayable",
      "type": "function"
    }
  ],
  "bytecode": "0x60806040523480156200001157600080fd5b50604051620027fc380380620027fc83398181016040528101906200003791906200015a565b600073ffffffffffffffffffffffffffffffffffffffff168173ffffffffffffffffffffffffffffffffffffffff1603620000a9576040517f08c379a0000000000000000000000000000000000000000000000000000000008152600401620000a090620001ed565b60405180910390fd5b806000806101000a81548173ffffffffffffffffffffffffffffffffffffffff021916908373ffffffffffffffffffffffffffffffffffffffff160217905550506200020f565b600080fd5b600073ffffffffffffffffffffffffffffffffffffffff82169050919050565b60006200012282620000f5565b9050919050565b620001348162000115565b81146200014057600080fd5b50565b600081519050620001548162000129565b92915050565b600060208284031215620001735762000172620000f0565b5b6000620001838482850162000143565b91505092915050565b600082825260208201905092915050565b7f61646d696e2073686f756c642062652070726f76696465640000000000000000600082015250565b6000620001d56018836200018c565b9150620001e2826200019d565b602082019050919050565b600060208201905081810360008301526200020881620001c6565b9050919050565b6125dd806200021f6000396000f3fe608060405234801561001057600080fd5b506004361061007d5760003560e01c80635e0f49661161005b5780635e0f4966146100d6578063704b6c0214610106578063c73448fa14610122578063f851a440146101525761007d565b8063171cb37914610082578063421b2d8b1461009e5780634a492795146100ba575b600080fd5b61009c600480360381019061009791906115e3565b610170565b005b6100b860048036038101906100b39190611718565b6103a8565b005b6100d460048036038101906100cf9190611745565b6104c8565b005b6100f060048036038101906100eb919061187f565b6107d7565b6040516100fd9190611ac8565b60405180910390f35b610120600480360381019061011b9190611718565b610ba9565b005b61013c60048036038101906101379190611aea565b610cd1565b6040516101499190611bde565b60405180910390f35b61015a611088565b6040516101679190611c0f565b60405180910390f35b60008054906101000a900473ffffffffffffffffffffffffffffffffffffffff1673ffffffffffffffffffffffffffffffffffffffff163373ffffffffffffffffffffffffffffffffffffffff16146101fe576040517f08c379a00000000000000000000000000000000000000000000000000000000081526004016101f590611c87565b60405180910390fd5b6000845103610242576040517f08c379a000000000000000000000000000000000000000000000000000000000815260040161023990611cf3565b60405180910390fd5b6000835103610286576040517f08c379a000000000000000000000000000000000000000000000000000000000815260040161027d90611d5f565b60405180910390fd5b60008251036102ca576040517f08c379a00000000000000000000000000000000000000000000000000000000081526004016102c190611dcb565b60405180910390fd5b6040518060800160405280858152602001848152602001838152602001828152506002856040516102fb9190611e27565b9081526020016040518091039020600082015181600001908161031e9190612054565b50602082015181600101908051906020019061033b929190611263565b5060408201518160020190816103519190612054565b5060608201518160030190816103679190612054565b509050507fe1e73cea801405ffb0b85349c05bd8c9f98aed462670e1b231c289fc5dbd7f378460405161039a919061215f565b60405180910390a150505050565b60008054906101000a900473ffffffffffffffffffffffffffffffffffffffff1673ffffffffffffffffffffffffffffffffffffffff163373ffffffffffffffffffffffffffffffffffffffff1614610436576040517f08c379a000000000000000000000000000000000000000000000000000000000815260040161042d90611c87565b60405180910390fd5b6001600360008373ffffffffffffffffffffffffffffffffffffffff1673ffffffffffffffffffffffffffffffffffffffff16815260200190815260200160002060006101000a81548160ff0219169083151502179055507f93e8ef53fa1762269961bdc02811e560fa10787f7f2f9c13f74ddad8221614d2816040516104bd9190611c0f565b60405180910390a150565b60008054906101000a900473ffffffffffffffffffffffffffffffffffffffff1673ffffffffffffffffffffffffffffffffffffffff163373ffffffffffffffffffffffffffffffffffffffff1614610556576040517f08c379a000000000000000000000000000000000000000000000000000000000815260040161054d90611c87565b60405180910390fd5b600073ffffffffffffffffffffffffffffffffffffffff168473ffffffffffffffffffffffffffffffffffffffff16036105c5576040517f08c379a00000000000000000000000000000000000000000000000000000000081526004016105bc906121cd565b60405180910390fd5b6000835103610609576040517f08c379a000000000000000000000000000000000000000000000000000000000815260040161060090611d5f565b60405180910390fd5b600082510361064d576040517f08c379a000000000000000000000000000000000000000000000000000000000815260040161064490611dcb565b60405180910390fd5b6000815103610691576040517f08c379a000000000000000000000000000000000000000000000000000000000815260040161068890612239565b60405180910390fd5b60405180608001604052808573ffffffffffffffffffffffffffffffffffffffff16815260200184815260200183815260200182815250600160008673ffffffffffffffffffffffffffffffffffffffff1673ffffffffffffffffffffffffffffffffffffffff16815260200190815260200160002060008201518160000160006101000a81548173ffffffffffffffffffffffffffffffffffffffff021916908373ffffffffffffffffffffffffffffffffffffffff160217905550602082015181600101908051906020019061076a929190611263565b5060408201518160020190816107809190612054565b5060608201518160030190816107969190612054565b509050507fd9664f79fcd2597f70c71280dbf8fccb5493b9206a42320187db26b24c484569846040516107c99190611c0f565b60405180910390a150505050565b6107df6112bc565b838383600061084e84848080601f016020809104026020016040519081016040528093929190818152602001838380828437600081840152601f19601f8201169050808301925050505050505083600001602081019061083f9190612292565b846020013585604001356110ac565b905060011515600360008373ffffffffffffffffffffffffffffffffffffffff1673ffffffffffffffffffffffffffffffffffffffff16815260200190815260200160002060009054906101000a900460ff161515146108e3576040517f08c379a00000000000000000000000000000000000000000000000000000000081526004016108da9061230b565b60405180910390fd5b6002896040516108f39190611e27565b908152602001604051809103902060405180608001604052908160008201805461091c90611e6d565b80601f016020809104026020016040519081016040528092919081815260200182805461094890611e6d565b80156109955780601f1061096a57610100808354040283529160200191610995565b820191906000526020600020905b81548152906001019060200180831161097857829003601f168201915b5050505050815260200160018201805480602002602001604051908101604052809291908181526020016000905b82821015610a6f5783829060005260206000200180546109e290611e6d565b80601f0160208091040260200160405190810160405280929190818152602001828054610a0e90611e6d565b8015610a5b5780601f10610a3057610100808354040283529160200191610a5b565b820191906000526020600020905b815481529060010190602001808311610a3e57829003601f168201915b5050505050815260200190600101906109c3565b505050508152602001600282018054610a8790611e6d565b80601f0160208091040260200160405190810160405280929190818152602001828054610ab390611e6d565b8015610b005780601f10610ad557610100808354040283529160200191610b00565b820191906000526020600020905b815481529060010190602001808311610ae357829003601f168201915b50505050508152602001600382018054610b1990611e6d565b80601f0160208091040260200160405190810160405280929190818152602001828054610b4590611e6d565b8015610b925780601f10610b6757610100808354040283529160200191610b92565b820191906000526020600020905b815481529060010190602001808311610b7557829003601f168201915b505050505081525050945050505050949350505050565b60008054906101000a900473ffffffffffffffffffffffffffffffffffffffff1673ffffffffffffffffffffffffffffffffffffffff163373ffffffffffffffffffffffffffffffffffffffff1614610c37576040517f08c379a0000000000000000000000000000000000000000000000000000000008152600401610c2e90611c87565b60405180910390fd5b806000806101000a81548173ffffffffffffffffffffffffffffffffffffffff021916908373ffffffffffffffffffffffffffffffffffffffff1602179055507f5a272403b402d892977df56625f4164ccaf70ca3863991c43ecfe76a6905b0a160008054906101000a900473ffffffffffffffffffffffffffffffffffffffff16604051610cc69190611c0f565b60405180910390a150565b610cd96112e4565b8383836000610d4884848080601f016020809104026020016040519081016040528093929190818152602001838380828437600081840152601f19601f82011690508083019250505050505050836000016020810190610d399190612292565b846020013585604001356110ac565b905060011515600360008373ffffffffffffffffffffffffffffffffffffffff1673ffffffffffffffffffffffffffffffffffffffff16815260200190815260200160002060009054906101000a900460ff16151514610ddd576040517f08c379a0000000000000000000000000000000000000000000000000000000008152600401610dd49061230b565b60405180910390fd5b600160008a73ffffffffffffffffffffffffffffffffffffffff1673ffffffffffffffffffffffffffffffffffffffff1681526020019081526020016000206040518060800160405290816000820160009054906101000a900473ffffffffffffffffffffffffffffffffffffffff1673ffffffffffffffffffffffffffffffffffffffff1673ffffffffffffffffffffffffffffffffffffffff16815260200160018201805480602002602001604051908101604052809291908181526020016000905b82821015610f4e578382906000526020600020018054610ec190611e6d565b80601f0160208091040260200160405190810160405280929190818152602001828054610eed90611e6d565b8015610f3a5780601f10610f0f57610100808354040283529160200191610f3a565b820191906000526020600020905b815481529060010190602001808311610f1d57829003601f168201915b505050505081526020019060010190610ea2565b505050508152602001600282018054610f6690611e6d565b80601f0160208091040260200160405190810160405280929190818152602001828054610f9290611e6d565b8015610fdf5780601f10610fb457610100808354040283529160200191610fdf565b820191906000526020600020905b815481529060010190602001808311610fc257829003601f168201915b50505050508152602001600382018054610ff890611e6d565b80601f016020809104026020016040519081016040528092919081815260200182805461102490611e6d565b80156110715780601f1061104657610100808354040283529160200191611071565b820191906000526020600020905b81548152906001019060200180831161105457829003601f168201915b505050505081525050945050505050949350505050565b60008054906101000a900473ffffffffffffffffffffffffffffffffffffffff1681565b6000806110b98651611143565b866040516020016110cb929190612377565b60405160208183030381529060405290506000818051906020012090506001818787876040516000815260200160405260405161110b94939291906123ce565b6020604051602081039080840390855afa15801561112d573d6000803e3d6000fd5b5050506020604051035192505050949350505050565b606060006001905060008390505b6000600a826111609190612471565b9150811461117b578180611173906124a2565b925050611151565b60008267ffffffffffffffff811115611197576111966113d2565b5b6040519080825280601f01601f1916602001820160405280156111c95781602001600182028036833780820191505090505b5090505b6001156112585782806111df906124ea565b935050600a856111ef9190612513565b60306111fb9190612544565b60f81b81848151811061121157611210612578565b5b60200101907effffffffffffffffffffffffffffffffffffffffffffffffffffffffffffff1916908160001a905350600a8561124d9190612471565b9450600083036111cd575b809350505050919050565b8280548282559060005260206000209081019282156112ab579160200282015b828111156112aa57825182908161129a9190612054565b5091602001919060010190611283565b5b5090506112b89190611322565b5090565b6040518060800160405280606081526020016060815260200160608152602001606081525090565b6040518060800160405280600073ffffffffffffffffffffffffffffffffffffffff1681526020016060815260200160608152602001606081525090565b5b8082111561134257600081816113399190611346565b50600101611323565b5090565b50805461135290611e6d565b6000825580601f106113645750611383565b601f0160209004906000526020600020908101906113829190611386565b5b50565b5b8082111561139f576000816000905550600101611387565b5090565b6000604051905090565b600080fd5b600080fd5b600080fd5b600080fd5b6000601f19601f8301169050919050565b7f4e487b7100000000000000000000000000000000000000000000000000000000600052604160045260246000fd5b61140a826113c1565b810181811067ffffffffffffffff82111715611429576114286113d2565b5b80604052505050565b600061143c6113a3565b90506114488282611401565b919050565b600067ffffffffffffffff821115611468576114676113d2565b5b611471826113c1565b9050602081019050919050565b82818337600083830152505050565b60006114a061149b8461144d565b611432565b9050828152602081018484840111156114bc576114bb6113bc565b5b6114c784828561147e565b509392505050565b600082601f8301126114e4576114e36113b7565b5b81356114f484826020860161148d565b91505092915050565b600067ffffffffffffffff821115611518576115176113d2565b5b602082029050602081019050919050565b600080fd5b600061154161153c846114fd565b611432565b9050808382526020820190506020840283018581111561156457611563611529565b5b835b818110156115ab57803567ffffffffffffffff811115611589576115886113b7565b5b80860161159689826114cf565b85526020850194505050602081019050611566565b5050509392505050565b600082601f8301126115ca576115c96113b7565b5b81356115da84826020860161152e565b91505092915050565b600080600080608085870312156115fd576115fc6113ad565b5b600085013567ffffffffffffffff81111561161b5761161a6113b2565b5b611627878288016114cf565b945050602085013567ffffffffffffffff811115611648576116476113b2565b5b611654878288016115b5565b935050604085013567ffffffffffffffff811115611675576116746113b2565b5b611681878288016114cf565b925050606085013567ffffffffffffffff8111156116a2576116a16113b2565b5b6116ae878288016114cf565b91505092959194509250565b600073ffffffffffffffffffffffffffffffffffffffff82169050919050565b60006116e5826116ba565b9050919050565b6116f5816116da565b811461170057600080fd5b50565b600081359050611712816116ec565b92915050565b60006020828403121561172e5761172d6113ad565b5b600061173c84828501611703565b91505092915050565b6000806000806080858703121561175f5761175e6113ad565b5b600061176d87828801611703565b945050602085013567ffffffffffffffff81111561178e5761178d6113b2565b5b61179a878288016115b5565b935050604085013567ffffffffffffffff8111156117bb576117ba6113b2565b5b6117c7878288016114cf565b925050606085013567ffffffffffffffff8111156117e8576117e76113b2565b5b6117f4878288016114cf565b91505092959194509250565b600080fd5b60008083601f84011261181b5761181a6113b7565b5b8235905067ffffffffffffffff81111561183857611837611800565b5b60208301915083600182028301111561185457611853611529565b5b9250929050565b600080fd5b6000606082840312156118765761187561185b565b5b81905092915050565b60008060008060a08587031215611899576118986113ad565b5b600085013567ffffffffffffffff8111156118b7576118b66113b2565b5b6118c3878288016114cf565b945050602085013567ffffffffffffffff8111156118e4576118e36113b2565b5b6118f087828801611805565b9350935050604061190387828801611860565b91505092959194509250565b600081519050919050565b600082825260208201905092915050565b60005b8381101561194957808201518184015260208101905061192e565b60008484015250505050565b60006119608261190f565b61196a818561191a565b935061197a81856020860161192b565b611983816113c1565b840191505092915050565b600081519050919050565b600082825260208201905092915050565b6000819050602082019050919050565b60006119c68383611955565b905092915050565b6000602082019050919050565b60006119e68261198e565b6119f08185611999565b935083602082028501611a02856119aa565b8060005b85811015611a3e5784840389528151611a1f85826119ba565b9450611a2a836119ce565b925060208a01995050600181019050611a06565b50829750879550505050505092915050565b60006080830160008301518482036000860152611a6d8282611955565b91505060208301518482036020860152611a8782826119db565b91505060408301518482036040860152611aa18282611955565b91505060608301518482036060860152611abb8282611955565b9150508091505092915050565b60006020820190508181036000830152611ae28184611a50565b905092915050565b60008060008060a08587031215611b0457611b036113ad565b5b6000611b1287828801611703565b945050602085013567ffffffffffffffff811115611b3357611b326113b2565b5b611b3f87828801611805565b93509350506040611b5287828801611860565b91505092959194509250565b611b67816116da565b82525050565b6000608083016000830151611b856000860182611b5e565b5060208301518482036020860152611b9d82826119db565b91505060408301518482036040860152611bb78282611955565b91505060608301518482036060860152611bd18282611955565b9150508091505092915050565b60006020820190508181036000830152611bf88184611b6d565b905092915050565b611c09816116da565b82525050565b6000602082019050611c246000830184611c00565b92915050565b600082825260208201905092915050565b7f4f6e6c792061646d696e2063616e206578656375746500000000000000000000600082015250565b6000611c71601683611c2a565b9150611c7c82611c3b565b602082019050919050565b60006020820190508181036000830152611ca081611c64565b9050919050565b7f75726c2073686f756c642062652070726f766964656400000000000000000000600082015250565b6000611cdd601683611c2a565b9150611ce882611ca7565b602082019050919050565b60006020820190508181036000830152611d0c81611cd0565b9050919050565b7f6c6162656c732073686f756c642062652070726f766964656400000000000000600082015250565b6000611d49601983611c2a565b9150611d5482611d13565b602082019050919050565b60006020820190508181036000830152611d7881611d3c565b9050919050565b7f63617465676f72792073686f756c642062652070726f76696465640000000000600082015250565b6000611db5601b83611c2a565b9150611dc082611d7f565b602082019050919050565b60006020820190508181036000830152611de481611da8565b9050919050565b600081905092915050565b6000611e018261190f565b611e0b8185611deb565b9350611e1b81856020860161192b565b80840191505092915050565b6000611e338284611df6565b915081905092915050565b7f4e487b7100000000000000000000000000000000000000000000000000000000600052602260045260246000fd5b60006002820490506001821680611e8557607f821691505b602082108103611e9857611e97611e3e565b5b50919050565b60008190508160005260206000209050919050565b60006020601f8301049050919050565b600082821b905092915050565b600060088302611f007fffffffffffffffffffffffffffffffffffffffffffffffffffffffffffffffff82611ec3565b611f0a8683611ec3565b95508019841693508086168417925050509392505050565b6000819050919050565b6000819050919050565b6000611f51611f4c611f4784611f22565b611f2c565b611f22565b9050919050565b6000819050919050565b611f6b83611f36565b611f7f611f7782611f58565b848454611ed0565b825550505050565b600090565b611f94611f87565b611f9f818484611f62565b505050565b5b81811015611fc357611fb8600082611f8c565b600181019050611fa5565b5050565b601f82111561200857611fd981611e9e565b611fe284611eb3565b81016020851015611ff1578190505b612005611ffd85611eb3565b830182611fa4565b50505b505050565b600082821c905092915050565b600061202b6000198460080261200d565b1980831691505092915050565b6000612044838361201a565b9150826002028217905092915050565b61205d8261190f565b67ffffffffffffffff811115612076576120756113d2565b5b6120808254611e6d565b61208b828285611fc7565b600060209050601f8311600181146120be57600084156120ac578287015190505b6120b68582612038565b86555061211e565b601f1984166120cc86611e9e565b60005b828110156120f4578489015182556001820191506020850194506020810190506120cf565b86831015612111578489015161210d601f89168261201a565b8355505b6001600288020188555050505b505050505050565b60006121318261190f565b61213b8185611c2a565b935061214b81856020860161192b565b612154816113c1565b840191505092915050565b600060208201905081810360008301526121798184612126565b905092915050565b7f616464726573732073686f756c642062652070726f7669646564000000000000600082015250565b60006121b7601a83611c2a565b91506121c282612181565b602082019050919050565b600060208201905081810360008301526121e6816121aa565b9050919050565b7f737562547970652073686f756c642062652070726f7669646564000000000000600082015250565b6000612223601a83611c2a565b915061222e826121ed565b602082019050919050565b6000602082019050818103600083015261225281612216565b9050919050565b600060ff82169050919050565b61226f81612259565b811461227a57600080fd5b50565b60008135905061228c81612266565b92915050565b6000602082840312156122a8576122a76113ad565b5b60006122b68482850161227d565b91505092915050565b7f4f6e6c7920726567697374657265642075736572732063616e2063616c6c0000600082015250565b60006122f5601e83611c2a565b9150612300826122bf565b602082019050919050565b60006020820190508181036000830152612324816122e8565b9050919050565b7f19457468657265756d205369676e6564204d6573736167653a0a000000000000600082015250565b6000612361601a83611deb565b915061236c8261232b565b601a82019050919050565b600061238282612354565b915061238e8285611df6565b915061239a8284611df6565b91508190509392505050565b6000819050919050565b6123b9816123a6565b82525050565b6123c881612259565b82525050565b60006080820190506123e360008301876123b0565b6123f060208301866123bf565b6123fd60408301856123b0565b61240a60608301846123b0565b95945050505050565b7f4e487b7100000000000000000000000000000000000000000000000000000000600052601260045260246000fd5b7f4e487b7100000000000000000000000000000000000000000000000000000000600052601160045260246000fd5b600061247c82611f22565b915061248783611f22565b92508261249757612496612413565b5b828204905092915050565b60006124ad82611f22565b91507fffffffffffffffffffffffffffffffffffffffffffffffffffffffffffffffff82036124df576124de612442565b5b600182019050919050565b60006124f582611f22565b91506000820361250857612507612442565b5b600182039050919050565b600061251e82611f22565b915061252983611f22565b92508261253957612538612413565b5b828206905092915050565b600061254f82611f22565b915061255a83611f22565b925082820190508082111561257257612571612442565b5b92915050565b7f4e487b7100000000000000000000000000000000000000000000000000000000600052603260045260246000fdfea26469706673582212204da361e3bcbfabb48433b1af84f11f6140c6607c0e4a6f0f93175636f09ef38464736f6c63430008180033",
  "linkReferences": {},
  "deployedLinkReferences": {}
}