{
  "_format": "hh-sol-artifact-1",
  "contractName": "Uppsala",
  "sourceName": "contracts/Uppsala.sol",
  "abi": [
    {
      "inputs": [
        {
          "internalType": "address",
          "name": "_admin",
          "type": "address"
        }
      ],
      "stateMutability": "nonpayable",
      "type": "constructor"
    },
    {
      "anonymous": false,
      "inputs": [
        {
          "indexed": false,
          "internalType": "address",
          "name": "",
          "type": "address"
        }
      ],
      "name": "SetAddrData",
      "type": "event"
    },
    {
      "anonymous": false,
      "inputs": [
        {
          "indexed": false,
          "internalType": "address",
          "name": "",
          "type": "address"
        }
      ],
      "name": "SetAdmin",
      "type": "event"
    },
    {
      "anonymous": false,
      "inputs": [
        {
          "indexed": false,
          "internalType": "string",
          "name": "",
          "type": "string"
        }
      ],
      "name": "SetUrlData",
      "type": "event"
    },
    {
      "inputs": [],
      "name": "admin",
      "outputs": [
        {
          "internalType": "address",
          "name": "",
          "type": "address"
        }
      ],
      "stateMutability": "view",
      "type": "function"
    },
    {
      "inputs": [
        {
          "internalType": "address",
          "name": "_cryptoAddr",
          "type": "address"
        }
      ],
      "name": "checCryptokAddr",
      "outputs": [
        {
          "components": [
            {
              "internalType": "address",
              "name": "x_pattern_value",
              "type": "address"
            },
            {
              "internalType": "string[]",
              "name": "labels",
              "type": "string[]"
            },
            {
              "internalType": "string",
              "name": "category",
              "type": "string"
            },
            {
              "internalType": "string",
              "name": "subType",
              "type": "string"
            }
          ],
          "internalType": "struct STIX_CRYPTO_ADDR",
          "name": "",
          "type": "tuple"
        }
      ],
      "stateMutability": "view",
      "type": "function"
    },
    {
      "inputs": [
        {
          "internalType": "string",
          "name": "_addr",
          "type": "string"
        }
      ],
      "name": "checkAddr",
      "outputs": [
        {
          "components": [
            {
              "internalType": "string",
              "name": "x_pattern_value",
              "type": "string"
            },
            {
              "internalType": "string[]",
              "name": "labels",
              "type": "string[]"
            },
            {
              "internalType": "string",
              "name": "category",
              "type": "string"
            },
            {
              "internalType": "string",
              "name": "subType",
              "type": "string"
            }
          ],
          "internalType": "struct STIX_ADDR",
          "name": "",
          "type": "tuple"
        }
      ],
      "stateMutability": "view",
      "type": "function"
    },
    {
      "inputs": [
        {
          "internalType": "string",
          "name": "_addr",
          "type": "string"
        },
        {
          "internalType": "string[]",
          "name": "_labels",
          "type": "string[]"
        },
        {
          "internalType": "string",
          "name": "_category",
          "type": "string"
        },
        {
          "internalType": "string",
          "name": "_subType",
          "type": "string"
        }
      ],
      "name": "setAddrData",
      "outputs": [],
      "stateMutability": "nonpayable",
      "type": "function"
    },
    {
      "inputs": [
        {
          "internalType": "address",
          "name": "_newAdmin",
          "type": "address"
        }
      ],
      "name": "setAdmin",
      "outputs": [],
      "stateMutability": "nonpayable",
      "type": "function"
    },
    {
      "inputs": [
        {
          "internalType": "address",
          "name": "_cryptoAddr",
          "type": "address"
        },
        {
          "internalType": "string[]",
          "name": "_labels",
          "type": "string[]"
        },
        {
          "internalType": "string",
          "name": "_category",
          "type": "string"
        },
        {
          "internalType": "string",
          "name": "_subType",
          "type": "string"
        }
      ],
      "name": "setCryptoAddrData",
      "outputs": [],
      "stateMutability": "nonpayable",
      "type": "function"
    }
  ],
  "bytecode": "0x60806040523480156200001157600080fd5b5060405162001e5038038062001e5083398181016040528101906200003791906200015a565b600073ffffffffffffffffffffffffffffffffffffffff168173ffffffffffffffffffffffffffffffffffffffff1603620000a9576040517f08c379a0000000000000000000000000000000000000000000000000000000008152600401620000a090620001ed565b60405180910390fd5b806000806101000a81548173ffffffffffffffffffffffffffffffffffffffff021916908373ffffffffffffffffffffffffffffffffffffffff160217905550506200020f565b600080fd5b600073ffffffffffffffffffffffffffffffffffffffff82169050919050565b60006200012282620000f5565b9050919050565b620001348162000115565b81146200014057600080fd5b50565b600081519050620001548162000129565b92915050565b600060208284031215620001735762000172620000f0565b5b6000620001838482850162000143565b91505092915050565b600082825260208201905092915050565b7f61646d696e2073686f756c642062652070726f76696465640000000000000000600082015250565b6000620001d56018836200018c565b9150620001e2826200019d565b602082019050919050565b600060208201905081810360008301526200020881620001c6565b9050919050565b611c31806200021f6000396000f3fe608060405234801561001057600080fd5b50600436106100625760003560e01c8063171cb379146100675780634a49279514610083578063704b6c021461009f578063b020c8f4146100bb578063c1c6a1a9146100eb578063f851a4401461011b575b600080fd5b610081600480360381019061007c91906110bf565b610139565b005b61009d600480360381019061009891906111f4565b610371565b005b6100b960048036038101906100b491906112af565b610680565b005b6100d560048036038101906100d091906112dc565b6107a8565b6040516100e291906114de565b60405180910390f35b610105600480360381019061010091906112af565b610a6f565b6040516101129190611580565b60405180910390f35b610123610d1b565b60405161013091906115b1565b60405180910390f35b60008054906101000a900473ffffffffffffffffffffffffffffffffffffffff1673ffffffffffffffffffffffffffffffffffffffff163373ffffffffffffffffffffffffffffffffffffffff16146101c7576040517f08c379a00000000000000000000000000000000000000000000000000000000081526004016101be90611629565b60405180910390fd5b600084510361020b576040517f08c379a000000000000000000000000000000000000000000000000000000000815260040161020290611695565b60405180910390fd5b600083510361024f576040517f08c379a000000000000000000000000000000000000000000000000000000000815260040161024690611701565b60405180910390fd5b6000825103610293576040517f08c379a000000000000000000000000000000000000000000000000000000000815260040161028a9061176d565b60405180910390fd5b6040518060800160405280858152602001848152602001838152602001828152506002856040516102c491906117c9565b908152602001604051809103902060008201518160000190816102e791906119f6565b506020820151816001019080519060200190610304929190610d3f565b50604082015181600201908161031a91906119f6565b50606082015181600301908161033091906119f6565b509050507fe1e73cea801405ffb0b85349c05bd8c9f98aed462670e1b231c289fc5dbd7f37846040516103639190611b01565b60405180910390a150505050565b60008054906101000a900473ffffffffffffffffffffffffffffffffffffffff1673ffffffffffffffffffffffffffffffffffffffff163373ffffffffffffffffffffffffffffffffffffffff16146103ff576040517f08c379a00000000000000000000000000000000000000000000000000000000081526004016103f690611629565b60405180910390fd5b600073ffffffffffffffffffffffffffffffffffffffff168473ffffffffffffffffffffffffffffffffffffffff160361046e576040517f08c379a000000000000000000000000000000000000000000000000000000000815260040161046590611b6f565b60405180910390fd5b60008351036104b2576040517f08c379a00000000000000000000000000000000000000000000000000000000081526004016104a990611701565b60405180910390fd5b60008251036104f6576040517f08c379a00000000000000000000000000000000000000000000000000000000081526004016104ed9061176d565b60405180910390fd5b600081510361053a576040517f08c379a000000000000000000000000000000000000000000000000000000000815260040161053190611bdb565b60405180910390fd5b60405180608001604052808573ffffffffffffffffffffffffffffffffffffffff16815260200184815260200183815260200182815250600160008673ffffffffffffffffffffffffffffffffffffffff1673ffffffffffffffffffffffffffffffffffffffff16815260200190815260200160002060008201518160000160006101000a81548173ffffffffffffffffffffffffffffffffffffffff021916908373ffffffffffffffffffffffffffffffffffffffff1602179055506020820151816001019080519060200190610613929190610d3f565b50604082015181600201908161062991906119f6565b50606082015181600301908161063f91906119f6565b509050507fd9664f79fcd2597f70c71280dbf8fccb5493b9206a42320187db26b24c4845698460405161067291906115b1565b60405180910390a150505050565b60008054906101000a900473ffffffffffffffffffffffffffffffffffffffff1673ffffffffffffffffffffffffffffffffffffffff163373ffffffffffffffffffffffffffffffffffffffff161461070e576040517f08c379a000000000000000000000000000000000000000000000000000000000815260040161070590611629565b60405180910390fd5b806000806101000a81548173ffffffffffffffffffffffffffffffffffffffff021916908373ffffffffffffffffffffffffffffffffffffffff1602179055507f5a272403b402d892977df56625f4164ccaf70ca3863991c43ecfe76a6905b0a160008054906101000a900473ffffffffffffffffffffffffffffffffffffffff1660405161079d91906115b1565b60405180910390a150565b6107b0610d98565b6002826040516107c091906117c9565b90815260200160405180910390206040518060800160405290816000820180546107e99061180f565b80601f01602080910402602001604051908101604052809291908181526020018280546108159061180f565b80156108625780601f1061083757610100808354040283529160200191610862565b820191906000526020600020905b81548152906001019060200180831161084557829003601f168201915b5050505050815260200160018201805480602002602001604051908101604052809291908181526020016000905b8282101561093c5783829060005260206000200180546108af9061180f565b80601f01602080910402602001604051908101604052809291908181526020018280546108db9061180f565b80156109285780601f106108fd57610100808354040283529160200191610928565b820191906000526020600020905b81548152906001019060200180831161090b57829003601f168201915b505050505081526020019060010190610890565b5050505081526020016002820180546109549061180f565b80601f01602080910402602001604051908101604052809291908181526020018280546109809061180f565b80156109cd5780601f106109a2576101008083540402835291602001916109cd565b820191906000526020600020905b8154815290600101906020018083116109b057829003601f168201915b505050505081526020016003820180546109e69061180f565b80601f0160208091040260200160405190810160405280929190818152602001828054610a129061180f565b8015610a5f5780601f10610a3457610100808354040283529160200191610a5f565b820191906000526020600020905b815481529060010190602001808311610a4257829003601f168201915b5050505050815250509050919050565b610a77610dc0565b600160008373ffffffffffffffffffffffffffffffffffffffff1673ffffffffffffffffffffffffffffffffffffffff1681526020019081526020016000206040518060800160405290816000820160009054906101000a900473ffffffffffffffffffffffffffffffffffffffff1673ffffffffffffffffffffffffffffffffffffffff1673ffffffffffffffffffffffffffffffffffffffff16815260200160018201805480602002602001604051908101604052809291908181526020016000905b82821015610be8578382906000526020600020018054610b5b9061180f565b80601f0160208091040260200160405190810160405280929190818152602001828054610b879061180f565b8015610bd45780601f10610ba957610100808354040283529160200191610bd4565b820191906000526020600020905b815481529060010190602001808311610bb757829003601f168201915b505050505081526020019060010190610b3c565b505050508152602001600282018054610c009061180f565b80601f0160208091040260200160405190810160405280929190818152602001828054610c2c9061180f565b8015610c795780601f10610c4e57610100808354040283529160200191610c79565b820191906000526020600020905b815481529060010190602001808311610c5c57829003601f168201915b50505050508152602001600382018054610c929061180f565b80601f0160208091040260200160405190810160405280929190818152602001828054610cbe9061180f565b8015610d0b5780601f10610ce057610100808354040283529160200191610d0b565b820191906000526020600020905b815481529060010190602001808311610cee57829003601f168201915b5050505050815250509050919050565b60008054906101000a900473ffffffffffffffffffffffffffffffffffffffff1681565b828054828255906000526020600020908101928215610d87579160200282015b82811115610d86578251829081610d7691906119f6565b5091602001919060010190610d5f565b5b509050610d949190610dfe565b5090565b6040518060800160405280606081526020016060815260200160608152602001606081525090565b6040518060800160405280600073ffffffffffffffffffffffffffffffffffffffff1681526020016060815260200160608152602001606081525090565b5b80821115610e1e5760008181610e159190610e22565b50600101610dff565b5090565b508054610e2e9061180f565b6000825580601f10610e405750610e5f565b601f016020900490600052602060002090810190610e5e9190610e62565b5b50565b5b80821115610e7b576000816000905550600101610e63565b5090565b6000604051905090565b600080fd5b600080fd5b600080fd5b600080fd5b6000601f19601f8301169050919050565b7f4e487b7100000000000000000000000000000000000000000000000000000000600052604160045260246000fd5b610ee682610e9d565b810181811067ffffffffffffffff82111715610f0557610f04610eae565b5b80604052505050565b6000610f18610e7f565b9050610f248282610edd565b919050565b600067ffffffffffffffff821115610f4457610f43610eae565b5b610f4d82610e9d565b9050602081019050919050565b82818337600083830152505050565b6000610f7c610f7784610f29565b610f0e565b905082815260208101848484011115610f9857610f97610e98565b5b610fa3848285610f5a565b509392505050565b600082601f830112610fc057610fbf610e93565b5b8135610fd0848260208601610f69565b91505092915050565b600067ffffffffffffffff821115610ff457610ff3610eae565b5b602082029050602081019050919050565b600080fd5b600061101d61101884610fd9565b610f0e565b905080838252602082019050602084028301858111156110405761103f611005565b5b835b8181101561108757803567ffffffffffffffff81111561106557611064610e93565b5b8086016110728982610fab565b85526020850194505050602081019050611042565b5050509392505050565b600082601f8301126110a6576110a5610e93565b5b81356110b684826020860161100a565b91505092915050565b600080600080608085870312156110d9576110d8610e89565b5b600085013567ffffffffffffffff8111156110f7576110f6610e8e565b5b61110387828801610fab565b945050602085013567ffffffffffffffff81111561112457611123610e8e565b5b61113087828801611091565b935050604085013567ffffffffffffffff81111561115157611150610e8e565b5b61115d87828801610fab565b925050606085013567ffffffffffffffff81111561117e5761117d610e8e565b5b61118a87828801610fab565b91505092959194509250565b600073ffffffffffffffffffffffffffffffffffffffff82169050919050565b60006111c182611196565b9050919050565b6111d1816111b6565b81146111dc57600080fd5b50565b6000813590506111ee816111c8565b92915050565b6000806000806080858703121561120e5761120d610e89565b5b600061121c878288016111df565b945050602085013567ffffffffffffffff81111561123d5761123c610e8e565b5b61124987828801611091565b935050604085013567ffffffffffffffff81111561126a57611269610e8e565b5b61127687828801610fab565b925050606085013567ffffffffffffffff81111561129757611296610e8e565b5b6112a387828801610fab565b91505092959194509250565b6000602082840312156112c5576112c4610e89565b5b60006112d3848285016111df565b91505092915050565b6000602082840312156112f2576112f1610e89565b5b600082013567ffffffffffffffff8111156113105761130f610e8e565b5b61131c84828501610fab565b91505092915050565b600081519050919050565b600082825260208201905092915050565b60005b8381101561135f578082015181840152602081019050611344565b60008484015250505050565b600061137682611325565b6113808185611330565b9350611390818560208601611341565b61139981610e9d565b840191505092915050565b600081519050919050565b600082825260208201905092915050565b6000819050602082019050919050565b60006113dc838361136b565b905092915050565b6000602082019050919050565b60006113fc826113a4565b61140681856113af565b935083602082028501611418856113c0565b8060005b85811015611454578484038952815161143585826113d0565b9450611440836113e4565b925060208a0199505060018101905061141c565b50829750879550505050505092915050565b60006080830160008301518482036000860152611483828261136b565b9150506020830151848203602086015261149d82826113f1565b915050604083015184820360408601526114b7828261136b565b915050606083015184820360608601526114d1828261136b565b9150508091505092915050565b600060208201905081810360008301526114f88184611466565b905092915050565b611509816111b6565b82525050565b60006080830160008301516115276000860182611500565b506020830151848203602086015261153f82826113f1565b91505060408301518482036040860152611559828261136b565b91505060608301518482036060860152611573828261136b565b9150508091505092915050565b6000602082019050818103600083015261159a818461150f565b905092915050565b6115ab816111b6565b82525050565b60006020820190506115c660008301846115a2565b92915050565b600082825260208201905092915050565b7f4f6e6c792061646d696e2063616e206578656375746500000000000000000000600082015250565b60006116136016836115cc565b915061161e826115dd565b602082019050919050565b6000602082019050818103600083015261164281611606565b9050919050565b7f75726c2073686f756c642062652070726f766964656400000000000000000000600082015250565b600061167f6016836115cc565b915061168a82611649565b602082019050919050565b600060208201905081810360008301526116ae81611672565b9050919050565b7f6c6162656c732073686f756c642062652070726f766964656400000000000000600082015250565b60006116eb6019836115cc565b91506116f6826116b5565b602082019050919050565b6000602082019050818103600083015261171a816116de565b9050919050565b7f63617465676f72792073686f756c642062652070726f76696465640000000000600082015250565b6000611757601b836115cc565b915061176282611721565b602082019050919050565b600060208201905081810360008301526117868161174a565b9050919050565b600081905092915050565b60006117a382611325565b6117ad818561178d565b93506117bd818560208601611341565b80840191505092915050565b60006117d58284611798565b915081905092915050565b7f4e487b7100000000000000000000000000000000000000000000000000000000600052602260045260246000fd5b6000600282049050600182168061182757607f821691505b60208210810361183a576118396117e0565b5b50919050565b60008190508160005260206000209050919050565b60006020601f8301049050919050565b600082821b905092915050565b6000600883026118a27fffffffffffffffffffffffffffffffffffffffffffffffffffffffffffffffff82611865565b6118ac8683611865565b95508019841693508086168417925050509392505050565b6000819050919050565b6000819050919050565b60006118f36118ee6118e9846118c4565b6118ce565b6118c4565b9050919050565b6000819050919050565b61190d836118d8565b611921611919826118fa565b848454611872565b825550505050565b600090565b611936611929565b611941818484611904565b505050565b5b818110156119655761195a60008261192e565b600181019050611947565b5050565b601f8211156119aa5761197b81611840565b61198484611855565b81016020851015611993578190505b6119a761199f85611855565b830182611946565b50505b505050565b600082821c905092915050565b60006119cd600019846008026119af565b1980831691505092915050565b60006119e683836119bc565b9150826002028217905092915050565b6119ff82611325565b67ffffffffffffffff811115611a1857611a17610eae565b5b611a22825461180f565b611a2d828285611969565b600060209050601f831160018114611a605760008415611a4e578287015190505b611a5885826119da565b865550611ac0565b601f198416611a6e86611840565b60005b82811015611a9657848901518255600182019150602085019450602081019050611a71565b86831015611ab35784890151611aaf601f8916826119bc565b8355505b6001600288020188555050505b505050505050565b6000611ad382611325565b611add81856115cc565b9350611aed818560208601611341565b611af681610e9d565b840191505092915050565b60006020820190508181036000830152611b1b8184611ac8565b905092915050565b7f616464726573732073686f756c642062652070726f7669646564000000000000600082015250565b6000611b59601a836115cc565b9150611b6482611b23565b602082019050919050565b60006020820190508181036000830152611b8881611b4c565b9050919050565b7f737562547970652073686f756c642062652070726f7669646564000000000000600082015250565b6000611bc5601a836115cc565b9150611bd082611b8f565b602082019050919050565b60006020820190508181036000830152611bf481611bb8565b905091905056fea264697066735822122004b9bdd0b3408147a1a95ca14a3f23fb0ad2567460b9b122c9c9607c1067171a64736f6c63430008180033",
  "linkReferences": {},
  "deployedLinkReferences": {}
}